{
  "contractName": "NftMarket",
  "abi": [
    {
      "inputs": [],
      "stateMutability": "nonpayable",
      "type": "constructor"
    },
    {
      "anonymous": false,
      "inputs": [
        {
          "indexed": true,
          "internalType": "address",
          "name": "owner",
          "type": "address"
        },
        {
          "indexed": true,
          "internalType": "address",
          "name": "approved",
          "type": "address"
        },
        {
          "indexed": true,
          "internalType": "uint256",
          "name": "tokenId",
          "type": "uint256"
        }
      ],
      "name": "Approval",
      "type": "event"
    },
    {
      "anonymous": false,
      "inputs": [
        {
          "indexed": true,
          "internalType": "address",
          "name": "owner",
          "type": "address"
        },
        {
          "indexed": true,
          "internalType": "address",
          "name": "operator",
          "type": "address"
        },
        {
          "indexed": false,
          "internalType": "bool",
          "name": "approved",
          "type": "bool"
        }
      ],
      "name": "ApprovalForAll",
      "type": "event"
    },
    {
      "anonymous": false,
      "inputs": [
        {
          "indexed": false,
          "internalType": "uint256",
          "name": "_fromTokenId",
          "type": "uint256"
        },
        {
          "indexed": false,
          "internalType": "uint256",
          "name": "_toTokenId",
          "type": "uint256"
        }
      ],
      "name": "BatchMetadataUpdate",
      "type": "event"
    },
    {
      "anonymous": false,
      "inputs": [
        {
          "indexed": false,
          "internalType": "uint256",
          "name": "_tokenId",
          "type": "uint256"
        }
      ],
      "name": "MetadataUpdate",
      "type": "event"
    },
    {
      "anonymous": false,
      "inputs": [
        {
          "indexed": false,
          "internalType": "uint256",
          "name": "tokenId",
          "type": "uint256"
        },
        {
          "indexed": false,
          "internalType": "uint256",
          "name": "price",
          "type": "uint256"
        },
        {
          "indexed": false,
          "internalType": "address",
          "name": "creator",
          "type": "address"
        },
        {
          "indexed": false,
          "internalType": "bool",
          "name": "isListed",
          "type": "bool"
        }
      ],
      "name": "NftItemCreated",
      "type": "event"
    },
    {
      "anonymous": false,
      "inputs": [
        {
          "indexed": true,
          "internalType": "address",
          "name": "previousOwner",
          "type": "address"
        },
        {
          "indexed": true,
          "internalType": "address",
          "name": "newOwner",
          "type": "address"
        }
      ],
      "name": "OwnershipTransferred",
      "type": "event"
    },
    {
      "anonymous": false,
      "inputs": [
        {
          "indexed": true,
          "internalType": "address",
          "name": "from",
          "type": "address"
        },
        {
          "indexed": true,
          "internalType": "address",
          "name": "to",
          "type": "address"
        },
        {
          "indexed": true,
          "internalType": "uint256",
          "name": "tokenId",
          "type": "uint256"
        }
      ],
      "name": "Transfer",
      "type": "event"
    },
    {
      "inputs": [
        {
          "internalType": "address",
          "name": "to",
          "type": "address"
        },
        {
          "internalType": "uint256",
          "name": "tokenId",
          "type": "uint256"
        }
      ],
      "name": "approve",
      "outputs": [],
      "stateMutability": "nonpayable",
      "type": "function"
    },
    {
      "inputs": [
        {
          "internalType": "address",
          "name": "owner",
          "type": "address"
        }
      ],
      "name": "balanceOf",
      "outputs": [
        {
          "internalType": "uint256",
          "name": "",
          "type": "uint256"
        }
      ],
      "stateMutability": "view",
      "type": "function",
      "constant": true
    },
    {
      "inputs": [
        {
          "internalType": "uint256",
          "name": "tokenId",
          "type": "uint256"
        }
      ],
      "name": "getApproved",
      "outputs": [
        {
          "internalType": "address",
          "name": "",
          "type": "address"
        }
      ],
      "stateMutability": "view",
      "type": "function",
      "constant": true
    },
    {
      "inputs": [
        {
          "internalType": "address",
          "name": "owner",
          "type": "address"
        },
        {
          "internalType": "address",
          "name": "operator",
          "type": "address"
        }
      ],
      "name": "isApprovedForAll",
      "outputs": [
        {
          "internalType": "bool",
          "name": "",
          "type": "bool"
        }
      ],
      "stateMutability": "view",
      "type": "function",
      "constant": true
    },
    {
      "inputs": [],
      "name": "listingPrice",
      "outputs": [
        {
          "internalType": "uint256",
          "name": "",
          "type": "uint256"
        }
      ],
      "stateMutability": "view",
      "type": "function",
      "constant": true
    },
    {
      "inputs": [],
      "name": "name",
      "outputs": [
        {
          "internalType": "string",
          "name": "",
          "type": "string"
        }
      ],
      "stateMutability": "view",
      "type": "function",
      "constant": true
    },
    {
      "inputs": [],
      "name": "owner",
      "outputs": [
        {
          "internalType": "address",
          "name": "",
          "type": "address"
        }
      ],
      "stateMutability": "view",
      "type": "function",
      "constant": true
    },
    {
      "inputs": [
        {
          "internalType": "uint256",
          "name": "tokenId",
          "type": "uint256"
        }
      ],
      "name": "ownerOf",
      "outputs": [
        {
          "internalType": "address",
          "name": "",
          "type": "address"
        }
      ],
      "stateMutability": "view",
      "type": "function",
      "constant": true
    },
    {
      "inputs": [],
      "name": "renounceOwnership",
      "outputs": [],
      "stateMutability": "nonpayable",
      "type": "function"
    },
    {
      "inputs": [
        {
          "internalType": "address",
          "name": "from",
          "type": "address"
        },
        {
          "internalType": "address",
          "name": "to",
          "type": "address"
        },
        {
          "internalType": "uint256",
          "name": "tokenId",
          "type": "uint256"
        }
      ],
      "name": "safeTransferFrom",
      "outputs": [],
      "stateMutability": "nonpayable",
      "type": "function"
    },
    {
      "inputs": [
        {
          "internalType": "address",
          "name": "from",
          "type": "address"
        },
        {
          "internalType": "address",
          "name": "to",
          "type": "address"
        },
        {
          "internalType": "uint256",
          "name": "tokenId",
          "type": "uint256"
        },
        {
          "internalType": "bytes",
          "name": "data",
          "type": "bytes"
        }
      ],
      "name": "safeTransferFrom",
      "outputs": [],
      "stateMutability": "nonpayable",
      "type": "function"
    },
    {
      "inputs": [
        {
          "internalType": "address",
          "name": "operator",
          "type": "address"
        },
        {
          "internalType": "bool",
          "name": "approved",
          "type": "bool"
        }
      ],
      "name": "setApprovalForAll",
      "outputs": [],
      "stateMutability": "nonpayable",
      "type": "function"
    },
    {
      "inputs": [
        {
          "internalType": "bytes4",
          "name": "interfaceId",
          "type": "bytes4"
        }
      ],
      "name": "supportsInterface",
      "outputs": [
        {
          "internalType": "bool",
          "name": "",
          "type": "bool"
        }
      ],
      "stateMutability": "view",
      "type": "function",
      "constant": true
    },
    {
      "inputs": [],
      "name": "symbol",
      "outputs": [
        {
          "internalType": "string",
          "name": "",
          "type": "string"
        }
      ],
      "stateMutability": "view",
      "type": "function",
      "constant": true
    },
    {
      "inputs": [
        {
          "internalType": "uint256",
          "name": "tokenId",
          "type": "uint256"
        }
      ],
      "name": "tokenURI",
      "outputs": [
        {
          "internalType": "string",
          "name": "",
          "type": "string"
        }
      ],
      "stateMutability": "view",
      "type": "function",
      "constant": true
    },
    {
      "inputs": [
        {
          "internalType": "address",
          "name": "from",
          "type": "address"
        },
        {
          "internalType": "address",
          "name": "to",
          "type": "address"
        },
        {
          "internalType": "uint256",
          "name": "tokenId",
          "type": "uint256"
        }
      ],
      "name": "transferFrom",
      "outputs": [],
      "stateMutability": "nonpayable",
      "type": "function"
    },
    {
      "inputs": [
        {
          "internalType": "address",
          "name": "newOwner",
          "type": "address"
        }
      ],
      "name": "transferOwnership",
      "outputs": [],
      "stateMutability": "nonpayable",
      "type": "function"
    },
    {
      "inputs": [
        {
          "internalType": "uint256",
          "name": "price",
          "type": "uint256"
        }
      ],
      "name": "setListingPrice",
      "outputs": [],
      "stateMutability": "nonpayable",
      "type": "function"
    },
    {
      "inputs": [
        {
          "internalType": "uint256",
          "name": "tokenId",
          "type": "uint256"
        }
      ],
      "name": "burnTokenId",
      "outputs": [],
      "stateMutability": "nonpayable",
      "type": "function"
    },
    {
      "inputs": [
        {
          "internalType": "string",
          "name": "tokenURI",
          "type": "string"
        },
        {
          "internalType": "uint256",
          "name": "price",
          "type": "uint256"
        }
      ],
      "name": "mintToken",
      "outputs": [
        {
          "internalType": "uint256",
          "name": "",
          "type": "uint256"
        }
      ],
      "stateMutability": "payable",
      "type": "function",
      "payable": true
    },
    {
      "inputs": [],
      "name": "getOwnedNfts",
      "outputs": [
        {
          "components": [
            {
              "internalType": "uint256",
              "name": "tokenId",
              "type": "uint256"
            },
            {
              "internalType": "uint256",
              "name": "price",
              "type": "uint256"
            },
            {
              "internalType": "address",
              "name": "creator",
              "type": "address"
            },
            {
              "internalType": "bool",
              "name": "isListed",
              "type": "bool"
            }
          ],
          "internalType": "struct NftMarket.NftItem[]",
          "name": "",
          "type": "tuple[]"
        }
      ],
      "stateMutability": "view",
      "type": "function",
      "constant": true
    },
    {
      "inputs": [],
      "name": "totalSupply",
      "outputs": [
        {
          "internalType": "uint256",
          "name": "",
          "type": "uint256"
        }
      ],
      "stateMutability": "view",
      "type": "function",
      "constant": true
    },
    {
      "inputs": [
        {
          "internalType": "uint256",
          "name": "index",
          "type": "uint256"
        }
      ],
      "name": "tokenByIndex",
      "outputs": [
        {
          "internalType": "uint256",
          "name": "",
          "type": "uint256"
        }
      ],
      "stateMutability": "view",
      "type": "function",
      "constant": true
    },
    {
      "inputs": [
        {
          "internalType": "address",
          "name": "owner",
          "type": "address"
        },
        {
          "internalType": "uint256",
          "name": "index",
          "type": "uint256"
        }
      ],
      "name": "tokenOfOwnerByIndex",
      "outputs": [
        {
          "internalType": "uint256",
          "name": "",
          "type": "uint256"
        }
      ],
      "stateMutability": "view",
      "type": "function",
      "constant": true
    },
    {
      "inputs": [],
      "name": "getAllNftsOnSale",
      "outputs": [
        {
          "components": [
            {
              "internalType": "uint256",
              "name": "tokenId",
              "type": "uint256"
            },
            {
              "internalType": "uint256",
              "name": "price",
              "type": "uint256"
            },
            {
              "internalType": "address",
              "name": "creator",
              "type": "address"
            },
            {
              "internalType": "bool",
              "name": "isListed",
              "type": "bool"
            }
          ],
          "internalType": "struct NftMarket.NftItem[]",
          "name": "",
          "type": "tuple[]"
        }
      ],
      "stateMutability": "view",
      "type": "function",
      "constant": true
    },
    {
      "inputs": [
        {
          "internalType": "uint256",
          "name": "tokenId",
          "type": "uint256"
        }
      ],
      "name": "buyNft",
      "outputs": [],
      "stateMutability": "payable",
      "type": "function",
      "payable": true
    },
    {
      "inputs": [
        {
          "internalType": "uint256",
          "name": "tokenId",
          "type": "uint256"
        },
        {
          "internalType": "uint256",
          "name": "price",
          "type": "uint256"
        }
      ],
      "name": "placeNftOnSale",
      "outputs": [],
      "stateMutability": "payable",
      "type": "function",
      "payable": true
    },
    {
      "inputs": [
        {
          "internalType": "uint256",
          "name": "tokenId",
          "type": "uint256"
        }
      ],
      "name": "cancelNftOnSale",
      "outputs": [],
      "stateMutability": "nonpayable",
      "type": "function"
    },
    {
      "inputs": [
        {
          "internalType": "uint256",
          "name": "tokenId",
          "type": "uint256"
        }
      ],
      "name": "getNftItem",
      "outputs": [
        {
          "components": [
            {
              "internalType": "uint256",
              "name": "tokenId",
              "type": "uint256"
            },
            {
              "internalType": "uint256",
              "name": "price",
              "type": "uint256"
            },
            {
              "internalType": "address",
              "name": "creator",
              "type": "address"
            },
            {
              "internalType": "bool",
              "name": "isListed",
              "type": "bool"
            }
          ],
          "internalType": "struct NftMarket.NftItem",
          "name": "",
          "type": "tuple"
        }
      ],
      "stateMutability": "view",
      "type": "function",
      "constant": true
    },
    {
      "inputs": [],
      "name": "listedItemsCount",
      "outputs": [
        {
          "internalType": "uint256",
          "name": "",
          "type": "uint256"
        }
      ],
      "stateMutability": "view",
      "type": "function",
      "constant": true
    },
    {
      "inputs": [
        {
          "internalType": "string",
          "name": "tokenURI",
          "type": "string"
        }
      ],
      "name": "tokenURIExists",
      "outputs": [
        {
          "internalType": "bool",
          "name": "",
          "type": "bool"
        }
      ],
      "stateMutability": "view",
      "type": "function",
      "constant": true
    }
  ],
  "bytecode": "0x60806040526658d15e176280006010553480156200001c57600080fd5b506040518060400160405280600981526020017f4e66744d61726b657400000000000000000000000000000000000000000000008152506040518060400160405280600481526020017f4e46544d000000000000000000000000000000000000000000000000000000008152508160009080519060200190620000a1929190620001b1565b508060019080519060200190620000ba929190620001b1565b505050620000dd620000d1620000e360201b60201c565b620000eb60201b60201c565b620002c5565b600033905090565b6000600760009054906101000a900473ffffffffffffffffffffffffffffffffffffffff16905081600760006101000a81548173ffffffffffffffffffffffffffffffffffffffff021916908373ffffffffffffffffffffffffffffffffffffffff1602179055508173ffffffffffffffffffffffffffffffffffffffff168173ffffffffffffffffffffffffffffffffffffffff167f8be0079c531659141344cd1fd0a4f28419497f9722a3daafe3b4186f6b6457e060405160405180910390a35050565b828054620001bf9062000290565b90600052602060002090601f016020900481019282620001e357600085556200022f565b82601f10620001fe57805160ff19168380011785556200022f565b828001600101855582156200022f579182015b828111156200022e57825182559160200191906001019062000211565b5b5090506200023e919062000242565b5090565b5b808211156200025d57600081600090555060010162000243565b5090565b7f4e487b7100000000000000000000000000000000000000000000000000000000600052602260045260246000fd5b60006002820490506001821680620002a957607f821691505b602082108103620002bf57620002be62000261565b5b50919050565b614c8980620002d56000396000f3fe6080604052600436106101d85760003560e01c806370a0823111610102578063c046372c11610095578063c87b56dd11610064578063c87b56dd146106b9578063ccb4918d146106f6578063e985e9c514610721578063f2fde38b1461075e576101d8565b8063c046372c1461060c578063c32d88ff1461063c578063c5c889b014610665578063c78f19f91461068e576101d8565b80638da5cb5b116100d15780638da5cb5b1461056457806395d89b411461058f578063a22cb465146105ba578063b88d4fde146105e3576101d8565b806370a08231146104bc57806370cbcb43146104f9578063715018a6146105245780637c726b691461053b576101d8565b8063243adbdd1161017a57806343d32ae71161014957806343d32ae7146103c85780634f6ccce7146104055780636352211e146104425780636f1a0af51461047f576101d8565b8063243adbdd1461031b5780632f745c591461033757806336b536be1461037457806342842e0e1461039f576101d8565b8063095ea7b3116101b6578063095ea7b31461028257806318160ddd146102ab57806321f422e5146102d657806323b872dd146102f2576101d8565b806301ffc9a7146101dd57806306fdde031461021a578063081812fc14610245575b600080fd5b3480156101e957600080fd5b5061020460048036038101906101ff91906133b6565b610787565b60405161021191906133fe565b60405180910390f35b34801561022657600080fd5b5061022f6107e8565b60405161023c91906134b2565b60405180910390f35b34801561025157600080fd5b5061026c6004803603810190610267919061350a565b61087a565b6040516102799190613578565b60405180910390f35b34801561028e57600080fd5b506102a960048036038101906102a491906135bf565b6108c0565b005b3480156102b757600080fd5b506102c06109d7565b6040516102cd919061360e565b60405180910390f35b6102f060048036038101906102eb9190613629565b6109e4565b005b3480156102fe57600080fd5b5061031960048036038101906103149190613669565b610b60565b005b6103356004803603810190610330919061350a565b610bc0565b005b34801561034357600080fd5b5061035e600480360381019061035991906135bf565b610d28565b60405161036b919061360e565b60405180910390f35b34801561038057600080fd5b50610389610dcd565b60405161039691906137ed565b60405180910390f35b3480156103ab57600080fd5b506103c660048036038101906103c19190613669565b610f60565b005b3480156103d457600080fd5b506103ef60048036038101906103ea9190613944565b610f80565b6040516103fc91906133fe565b60405180910390f35b34801561041157600080fd5b5061042c6004803603810190610427919061350a565b610fbc565b604051610439919061360e565b60405180910390f35b34801561044e57600080fd5b506104696004803603810190610464919061350a565b61102d565b6040516104769190613578565b60405180910390f35b34801561048b57600080fd5b506104a660048036038101906104a1919061350a565b6110b3565b6040516104b391906139e2565b60405180910390f35b3480156104c857600080fd5b506104e360048036038101906104de91906139fd565b611165565b6040516104f0919061360e565b60405180910390f35b34801561050557600080fd5b5061050e61121c565b60405161051b91906137ed565b60405180910390f35b34801561053057600080fd5b50610539611380565b005b34801561054757600080fd5b50610562600480360381019061055d919061350a565b611394565b005b34801561057057600080fd5b506105796113e9565b6040516105869190613578565b60405180910390f35b34801561059b57600080fd5b506105a4611413565b6040516105b191906134b2565b60405180910390f35b3480156105c657600080fd5b506105e160048036038101906105dc9190613a56565b6114a5565b005b3480156105ef57600080fd5b5061060a60048036038101906106059190613b37565b6114bb565b005b61062660048036038101906106219190613bba565b61151d565b604051610633919061360e565b60405180910390f35b34801561064857600080fd5b50610663600480360381019061065e919061350a565b61162d565b005b34801561067157600080fd5b5061068c6004803603810190610687919061350a565b611639565b005b34801561069a57600080fd5b506106a3611755565b6040516106b0919061360e565b60405180910390f35b3480156106c557600080fd5b506106e060048036038101906106db919061350a565b61175b565b6040516106ed91906134b2565b60405180910390f35b34801561070257600080fd5b5061070b61186d565b604051610718919061360e565b60405180910390f35b34801561072d57600080fd5b5061074860048036038101906107439190613c16565b61187e565b60405161075591906133fe565b60405180910390f35b34801561076a57600080fd5b50610785600480360381019061078091906139fd565b611912565b005b6000634906490660e01b7bffffffffffffffffffffffffffffffffffffffffffffffffffffffff1916827bffffffffffffffffffffffffffffffffffffffffffffffffffffffff191614806107e157506107e082611995565b5b9050919050565b6060600080546107f790613c85565b80601f016020809104026020016040519081016040528092919081815260200182805461082390613c85565b80156108705780601f1061084557610100808354040283529160200191610870565b820191906000526020600020905b81548152906001019060200180831161085357829003601f168201915b5050505050905090565b600061088582611a77565b6004600083815260200190815260200160002060009054906101000a900473ffffffffffffffffffffffffffffffffffffffff169050919050565b60006108cb8261102d565b90508073ffffffffffffffffffffffffffffffffffffffff168373ffffffffffffffffffffffffffffffffffffffff160361093b576040517f08c379a000000000000000000000000000000000000000000000000000000000815260040161093290613d28565b60405180910390fd5b8073ffffffffffffffffffffffffffffffffffffffff1661095a611ac2565b73ffffffffffffffffffffffffffffffffffffffff161480610989575061098881610983611ac2565b61187e565b5b6109c8576040517f08c379a00000000000000000000000000000000000000000000000000000000081526004016109bf90613dba565b60405180910390fd5b6109d28383611aca565b505050565b6000600a80549050905090565b6109ed8261102d565b73ffffffffffffffffffffffffffffffffffffffff163373ffffffffffffffffffffffffffffffffffffffff1614610a5a576040517f08c379a0000000000000000000000000000000000000000000000000000000008152600401610a5190613e4c565b60405180910390fd5b60001515600c600084815260200190815260200160002060020160149054906101000a900460ff16151514610ac4576040517f08c379a0000000000000000000000000000000000000000000000000000000008152600401610abb90613eb8565b60405180910390fd5b6010543414610b08576040517f08c379a0000000000000000000000000000000000000000000000000000000008152600401610aff90613f4a565b60405180910390fd5b6001600c600084815260200190815260200160002060020160146101000a81548160ff02191690831515021790555080600c600084815260200190815260200160002060010181905550610b5c6008611b83565b5050565b610b71610b6b611ac2565b82611b99565b610bb0576040517f08c379a0000000000000000000000000000000000000000000000000000000008152600401610ba790613fdc565b60405180910390fd5b610bbb838383611c2e565b505050565b6000600c60008381526020019081526020016000206001015490506000610be68361102d565b90508073ffffffffffffffffffffffffffffffffffffffff163373ffffffffffffffffffffffffffffffffffffffff1603610c56576040517f08c379a0000000000000000000000000000000000000000000000000000000008152600401610c4d9061406e565b60405180910390fd5b813414610c98576040517f08c379a0000000000000000000000000000000000000000000000000000000008152600401610c8f90614100565b60405180910390fd5b6000600c600085815260200190815260200160002060020160146101000a81548160ff021916908315150217905550610cd16008611f27565b610cdc813385611c2e565b8073ffffffffffffffffffffffffffffffffffffffff166108fc349081150290604051600060405180830381858888f19350505050158015610d22573d6000803e3d6000fd5b50505050565b6000610d3383611165565b8210610d74576040517f08c379a0000000000000000000000000000000000000000000000000000000008152600401610d6b90614192565b60405180910390fd5b600e60008473ffffffffffffffffffffffffffffffffffffffff1673ffffffffffffffffffffffffffffffffffffffff168152602001908152602001600020600083815260200190815260200160002054905092915050565b60606000610dd96109d7565b9050600080610de86008611f83565b67ffffffffffffffff811115610e0157610e00613819565b5b604051908082528060200260200182016040528015610e3a57816020015b610e27613227565b815260200190600190039081610e1f5790505b50905060005b83811015610f56576000610e5382610fbc565b90506000600c600083815260200190815260200160002090508060020160149054906101000a900460ff1615610f41578060405180608001604052908160008201548152602001600182015481526020016002820160009054906101000a900473ffffffffffffffffffffffffffffffffffffffff1673ffffffffffffffffffffffffffffffffffffffff1673ffffffffffffffffffffffffffffffffffffffff1681526020016002820160149054906101000a900460ff161515151581525050848681518110610f2757610f266141b2565b5b60200260200101819052508480610f3d90614210565b9550505b50508080610f4e90614210565b915050610e40565b5080935050505090565b610f7b838383604051806020016040528060008152506114bb565b505050565b600060011515600b83604051610f969190614294565b908152602001604051809103902060009054906101000a900460ff161515149050919050565b6000610fc66109d7565b8210611007576040517f08c379a0000000000000000000000000000000000000000000000000000000008152600401610ffe9061431d565b60405180910390fd5b600a828154811061101b5761101a6141b2565b5b90600052602060002001549050919050565b60008061103983611f91565b9050600073ffffffffffffffffffffffffffffffffffffffff168173ffffffffffffffffffffffffffffffffffffffff16036110aa576040517f08c379a00000000000000000000000000000000000000000000000000000000081526004016110a190614389565b60405180910390fd5b80915050919050565b6110bb613227565b600c600083815260200190815260200160002060405180608001604052908160008201548152602001600182015481526020016002820160009054906101000a900473ffffffffffffffffffffffffffffffffffffffff1673ffffffffffffffffffffffffffffffffffffffff1673ffffffffffffffffffffffffffffffffffffffff1681526020016002820160149054906101000a900460ff1615151515815250509050919050565b60008073ffffffffffffffffffffffffffffffffffffffff168273ffffffffffffffffffffffffffffffffffffffff16036111d5576040517f08c379a00000000000000000000000000000000000000000000000000000000081526004016111cc9061441b565b60405180910390fd5b600360008373ffffffffffffffffffffffffffffffffffffffff1673ffffffffffffffffffffffffffffffffffffffff168152602001908152602001600020549050919050565b6060600061122933611165565b905060008167ffffffffffffffff81111561124757611246613819565b5b60405190808252806020026020018201604052801561128057816020015b61126d613227565b8152602001906001900390816112655790505b50905060005b8281101561137757600061129a3383610d28565b90506000600c600083815260200190815260200160002090508060405180608001604052908160008201548152602001600182015481526020016002820160009054906101000a900473ffffffffffffffffffffffffffffffffffffffff1673ffffffffffffffffffffffffffffffffffffffff1673ffffffffffffffffffffffffffffffffffffffff1681526020016002820160149054906101000a900460ff161515151581525050848481518110611357576113566141b2565b5b60200260200101819052505050808061136f90614210565b915050611286565b50809250505090565b611388611fce565b611392600061204c565b565b61139c611fce565b600081116113df576040517f08c379a00000000000000000000000000000000000000000000000000000000081526004016113d690614487565b60405180910390fd5b8060108190555050565b6000600760009054906101000a900473ffffffffffffffffffffffffffffffffffffffff16905090565b60606001805461142290613c85565b80601f016020809104026020016040519081016040528092919081815260200182805461144e90613c85565b801561149b5780601f106114705761010080835404028352916020019161149b565b820191906000526020600020905b81548152906001019060200180831161147e57829003601f168201915b5050505050905090565b6114b76114b0611ac2565b8383612112565b5050565b6114cc6114c6611ac2565b83611b99565b61150b576040517f08c379a000000000000000000000000000000000000000000000000000000000815260040161150290613fdc565b60405180910390fd5b6115178484848461227e565b50505050565b600061152883610f80565b15611568576040517f08c379a000000000000000000000000000000000000000000000000000000000815260040161155f906144f3565b60405180910390fd5b60105434146115ac576040517f08c379a00000000000000000000000000000000000000000000000000000000081526004016115a390613f4a565b60405180910390fd5b6115b66009611b83565b6115c06008611b83565b60006115cc6009611f83565b90506115d833826122da565b6115e281856122f8565b6115ec81846123a3565b6001600b856040516115fe9190614294565b908152602001604051809103902060006101000a81548160ff0219169083151502179055508091505092915050565b611636816124f3565b50565b6116428161102d565b73ffffffffffffffffffffffffffffffffffffffff163373ffffffffffffffffffffffffffffffffffffffff16146116af576040517f08c379a00000000000000000000000000000000000000000000000000000000081526004016116a690613e4c565b60405180910390fd5b60011515600c600083815260200190815260200160002060020160149054906101000a900460ff16151514611719576040517f08c379a00000000000000000000000000000000000000000000000000000000081526004016117109061455f565b60405180910390fd5b6000600c600083815260200190815260200160002060020160146101000a81548160ff0219169083151502179055506117526008611f27565b50565b60105481565b606061176682611a77565b600060066000848152602001908152602001600020805461178690613c85565b80601f01602080910402602001604051908101604052809291908181526020018280546117b290613c85565b80156117ff5780601f106117d4576101008083540402835291602001916117ff565b820191906000526020600020905b8154815290600101906020018083116117e257829003601f168201915b505050505090506000611810612546565b90506000815103611825578192505050611868565b60008251111561185a57808260405160200161184292919061457f565b60405160208183030381529060405292505050611868565b6118638461255d565b925050505b919050565b60006118796008611f83565b905090565b6000600560008473ffffffffffffffffffffffffffffffffffffffff1673ffffffffffffffffffffffffffffffffffffffff16815260200190815260200160002060008373ffffffffffffffffffffffffffffffffffffffff1673ffffffffffffffffffffffffffffffffffffffff16815260200190815260200160002060009054906101000a900460ff16905092915050565b61191a611fce565b600073ffffffffffffffffffffffffffffffffffffffff168173ffffffffffffffffffffffffffffffffffffffff1603611989576040517f08c379a000000000000000000000000000000000000000000000000000000000815260040161198090614615565b60405180910390fd5b6119928161204c565b50565b60007f80ac58cd000000000000000000000000000000000000000000000000000000007bffffffffffffffffffffffffffffffffffffffffffffffffffffffff1916827bffffffffffffffffffffffffffffffffffffffffffffffffffffffff19161480611a6057507f5b5e139f000000000000000000000000000000000000000000000000000000007bffffffffffffffffffffffffffffffffffffffffffffffffffffffff1916827bffffffffffffffffffffffffffffffffffffffffffffffffffffffff1916145b80611a705750611a6f826125c5565b5b9050919050565b611a808161262f565b611abf576040517f08c379a0000000000000000000000000000000000000000000000000000000008152600401611ab690614389565b60405180910390fd5b50565b600033905090565b816004600083815260200190815260200160002060006101000a81548173ffffffffffffffffffffffffffffffffffffffff021916908373ffffffffffffffffffffffffffffffffffffffff160217905550808273ffffffffffffffffffffffffffffffffffffffff16611b3d8361102d565b73ffffffffffffffffffffffffffffffffffffffff167f8c5be1e5ebec7d5bd14f71427d1e84f3dd0314c0f7b2291e5b200ac8c7c3b92560405160405180910390a45050565b6001816000016000828254019250508190555050565b600080611ba58361102d565b90508073ffffffffffffffffffffffffffffffffffffffff168473ffffffffffffffffffffffffffffffffffffffff161480611be75750611be6818561187e565b5b80611c2557508373ffffffffffffffffffffffffffffffffffffffff16611c0d8461087a565b73ffffffffffffffffffffffffffffffffffffffff16145b91505092915050565b8273ffffffffffffffffffffffffffffffffffffffff16611c4e8261102d565b73ffffffffffffffffffffffffffffffffffffffff1614611ca4576040517f08c379a0000000000000000000000000000000000000000000000000000000008152600401611c9b906146a7565b60405180910390fd5b600073ffffffffffffffffffffffffffffffffffffffff168273ffffffffffffffffffffffffffffffffffffffff1603611d13576040517f08c379a0000000000000000000000000000000000000000000000000000000008152600401611d0a90614739565b60405180910390fd5b611d208383836001612670565b8273ffffffffffffffffffffffffffffffffffffffff16611d408261102d565b73ffffffffffffffffffffffffffffffffffffffff1614611d96576040517f08c379a0000000000000000000000000000000000000000000000000000000008152600401611d8d906146a7565b60405180910390fd5b6004600082815260200190815260200160002060006101000a81549073ffffffffffffffffffffffffffffffffffffffff02191690556001600360008573ffffffffffffffffffffffffffffffffffffffff1673ffffffffffffffffffffffffffffffffffffffff168152602001908152602001600020600082825403925050819055506001600360008473ffffffffffffffffffffffffffffffffffffffff1673ffffffffffffffffffffffffffffffffffffffff16815260200190815260200160002060008282540192505081905550816002600083815260200190815260200160002060006101000a81548173ffffffffffffffffffffffffffffffffffffffff021916908373ffffffffffffffffffffffffffffffffffffffff160217905550808273ffffffffffffffffffffffffffffffffffffffff168473ffffffffffffffffffffffffffffffffffffffff167fddf252ad1be2c89b69c2b068fc378daa952ba7f163c4a11628f55a4df523b3ef60405160405180910390a4611f228383836001612784565b505050565b60008160000154905060008111611f73576040517f08c379a0000000000000000000000000000000000000000000000000000000008152600401611f6a906147a5565b60405180910390fd5b6001810382600001819055505050565b600081600001549050919050565b60006002600083815260200190815260200160002060009054906101000a900473ffffffffffffffffffffffffffffffffffffffff169050919050565b611fd6611ac2565b73ffffffffffffffffffffffffffffffffffffffff16611ff46113e9565b73ffffffffffffffffffffffffffffffffffffffff161461204a576040517f08c379a000000000000000000000000000000000000000000000000000000000815260040161204190614811565b60405180910390fd5b565b6000600760009054906101000a900473ffffffffffffffffffffffffffffffffffffffff16905081600760006101000a81548173ffffffffffffffffffffffffffffffffffffffff021916908373ffffffffffffffffffffffffffffffffffffffff1602179055508173ffffffffffffffffffffffffffffffffffffffff168173ffffffffffffffffffffffffffffffffffffffff167f8be0079c531659141344cd1fd0a4f28419497f9722a3daafe3b4186f6b6457e060405160405180910390a35050565b8173ffffffffffffffffffffffffffffffffffffffff168373ffffffffffffffffffffffffffffffffffffffff1603612180576040517f08c379a00000000000000000000000000000000000000000000000000000000081526004016121779061487d565b60405180910390fd5b80600560008573ffffffffffffffffffffffffffffffffffffffff1673ffffffffffffffffffffffffffffffffffffffff16815260200190815260200160002060008473ffffffffffffffffffffffffffffffffffffffff1673ffffffffffffffffffffffffffffffffffffffff16815260200190815260200160002060006101000a81548160ff0219169083151502179055508173ffffffffffffffffffffffffffffffffffffffff168373ffffffffffffffffffffffffffffffffffffffff167f17307eab39ab6107e8899845ad3d59bd9653f200f220920489ca2b5937696c318360405161227191906133fe565b60405180910390a3505050565b612289848484611c2e565b6122958484848461278a565b6122d4576040517f08c379a00000000000000000000000000000000000000000000000000000000081526004016122cb9061490f565b60405180910390fd5b50505050565b6122f4828260405180602001604052806000815250612911565b5050565b6123018261262f565b612340576040517f08c379a0000000000000000000000000000000000000000000000000000000008152600401612337906149a1565b60405180910390fd5b80600660008481526020019081526020016000209080519060200190612367929190613267565b507ff8e1a15aba9398e019f0b49df1a4fde98ee17ae345cb5f6b5e2c27f5033e8ce782604051612397919061360e565b60405180910390a15050565b600081116123e6576040517f08c379a00000000000000000000000000000000000000000000000000000000081526004016123dd90614487565b60405180910390fd5b60405180608001604052808381526020018281526020013373ffffffffffffffffffffffffffffffffffffffff16815260200160011515815250600c6000848152602001908152602001600020600082015181600001556020820151816001015560408201518160020160006101000a81548173ffffffffffffffffffffffffffffffffffffffff021916908373ffffffffffffffffffffffffffffffffffffffff16021790555060608201518160020160146101000a81548160ff0219169083151502179055509050507f470031062672bc0246e132c723a729c4676710ec663a29e86c88678032daddea82823360016040516124e794939291906149c1565b60405180910390a15050565b6124fc8161296c565b600060066000838152602001908152602001600020805461251c90613c85565b9050146125435760066000828152602001908152602001600020600061254291906132ed565b5b50565b606060405180602001604052806000815250905090565b606061256882611a77565b6000612572612546565b9050600081511161259257604051806020016040528060008152506125bd565b8061259c84612aba565b6040516020016125ad92919061457f565b6040516020818303038152906040525b915050919050565b60007f01ffc9a7000000000000000000000000000000000000000000000000000000007bffffffffffffffffffffffffffffffffffffffffffffffffffffffff1916827bffffffffffffffffffffffffffffffffffffffffffffffffffffffff1916149050919050565b60008073ffffffffffffffffffffffffffffffffffffffff1661265183611f91565b73ffffffffffffffffffffffffffffffffffffffff1614159050919050565b61267c84848484612b88565b600073ffffffffffffffffffffffffffffffffffffffff168473ffffffffffffffffffffffffffffffffffffffff16036126be576126b982612b8e565b6126fd565b8273ffffffffffffffffffffffffffffffffffffffff168473ffffffffffffffffffffffffffffffffffffffff16146126fc576126fb8483612bd7565b5b5b600073ffffffffffffffffffffffffffffffffffffffff168373ffffffffffffffffffffffffffffffffffffffff160361273f5761273a82612d44565b61277e565b8373ffffffffffffffffffffffffffffffffffffffff168373ffffffffffffffffffffffffffffffffffffffff161461277d5761277c8383612e15565b5b5b50505050565b50505050565b60006127ab8473ffffffffffffffffffffffffffffffffffffffff16612e94565b15612904578373ffffffffffffffffffffffffffffffffffffffff1663150b7a026127d4611ac2565b8786866040518563ffffffff1660e01b81526004016127f69493929190614a5b565b6020604051808303816000875af192505050801561283257506040513d601f19601f8201168201806040525081019061282f9190614abc565b60015b6128b4573d8060008114612862576040519150601f19603f3d011682016040523d82523d6000602084013e612867565b606091505b5060008151036128ac576040517f08c379a00000000000000000000000000000000000000000000000000000000081526004016128a39061490f565b60405180910390fd5b805181602001fd5b63150b7a0260e01b7bffffffffffffffffffffffffffffffffffffffffffffffffffffffff1916817bffffffffffffffffffffffffffffffffffffffffffffffffffffffff191614915050612909565b600190505b949350505050565b61291b8383612eb7565b612928600084848461278a565b612967576040517f08c379a000000000000000000000000000000000000000000000000000000000815260040161295e9061490f565b60405180910390fd5b505050565b60006129778261102d565b9050612987816000846001612670565b6129908261102d565b90506004600083815260200190815260200160002060006101000a81549073ffffffffffffffffffffffffffffffffffffffff02191690556001600360008373ffffffffffffffffffffffffffffffffffffffff1673ffffffffffffffffffffffffffffffffffffffff168152602001908152602001600020600082825403925050819055506002600083815260200190815260200160002060006101000a81549073ffffffffffffffffffffffffffffffffffffffff021916905581600073ffffffffffffffffffffffffffffffffffffffff168273ffffffffffffffffffffffffffffffffffffffff167fddf252ad1be2c89b69c2b068fc378daa952ba7f163c4a11628f55a4df523b3ef60405160405180910390a4612ab6816000846001612784565b5050565b606060006001612ac9846130d4565b01905060008167ffffffffffffffff811115612ae857612ae7613819565b5b6040519080825280601f01601f191660200182016040528015612b1a5781602001600182028036833780820191505090505b509050600082602001820190505b600115612b7d578080600190039150507f3031323334353637383961626364656600000000000000000000000000000000600a86061a8153600a8581612b7157612b70614ae9565b5b04945060008503612b28575b819350505050919050565b50505050565b600a80549050600d600083815260200190815260200160002081905550600a81908060018154018082558091505060019003906000526020600020016000909190919091505550565b60006001612be484611165565b612bee9190614b18565b90506000600f6000848152602001908152602001600020549050818114612cd3576000600e60008673ffffffffffffffffffffffffffffffffffffffff1673ffffffffffffffffffffffffffffffffffffffff168152602001908152602001600020600084815260200190815260200160002054905080600e60008773ffffffffffffffffffffffffffffffffffffffff1673ffffffffffffffffffffffffffffffffffffffff16815260200190815260200160002060008481526020019081526020016000208190555081600f600083815260200190815260200160002081905550505b600f600084815260200190815260200160002060009055600e60008573ffffffffffffffffffffffffffffffffffffffff1673ffffffffffffffffffffffffffffffffffffffff16815260200190815260200160002060008381526020019081526020016000206000905550505050565b60006001600a80549050612d589190614b18565b90506000600d60008481526020019081526020016000205490506000600a8381548110612d8857612d876141b2565b5b9060005260206000200154905080600a8381548110612daa57612da96141b2565b5b906000526020600020018190555081600d600083815260200190815260200160002081905550600d600085815260200190815260200160002060009055600a805480612df957612df8614b4c565b5b6001900381819060005260206000200160009055905550505050565b6000612e2083611165565b905081600e60008573ffffffffffffffffffffffffffffffffffffffff1673ffffffffffffffffffffffffffffffffffffffff16815260200190815260200160002060008381526020019081526020016000208190555080600f600084815260200190815260200160002081905550505050565b6000808273ffffffffffffffffffffffffffffffffffffffff163b119050919050565b600073ffffffffffffffffffffffffffffffffffffffff168273ffffffffffffffffffffffffffffffffffffffff1603612f26576040517f08c379a0000000000000000000000000000000000000000000000000000000008152600401612f1d90614bc7565b60405180910390fd5b612f2f8161262f565b15612f6f576040517f08c379a0000000000000000000000000000000000000000000000000000000008152600401612f6690614c33565b60405180910390fd5b612f7d600083836001612670565b612f868161262f565b15612fc6576040517f08c379a0000000000000000000000000000000000000000000000000000000008152600401612fbd90614c33565b60405180910390fd5b6001600360008473ffffffffffffffffffffffffffffffffffffffff1673ffffffffffffffffffffffffffffffffffffffff16815260200190815260200160002060008282540192505081905550816002600083815260200190815260200160002060006101000a81548173ffffffffffffffffffffffffffffffffffffffff021916908373ffffffffffffffffffffffffffffffffffffffff160217905550808273ffffffffffffffffffffffffffffffffffffffff16600073ffffffffffffffffffffffffffffffffffffffff167fddf252ad1be2c89b69c2b068fc378daa952ba7f163c4a11628f55a4df523b3ef60405160405180910390a46130d0600083836001612784565b5050565b600080600090507a184f03e93ff9f4daa797ed6e38ed64bf6a1f0100000000000000008310613132577a184f03e93ff9f4daa797ed6e38ed64bf6a1f010000000000000000838161312857613127614ae9565b5b0492506040810190505b6d04ee2d6d415b85acef8100000000831061316f576d04ee2d6d415b85acef8100000000838161316557613164614ae9565b5b0492506020810190505b662386f26fc10000831061319e57662386f26fc10000838161319457613193614ae9565b5b0492506010810190505b6305f5e10083106131c7576305f5e10083816131bd576131bc614ae9565b5b0492506008810190505b61271083106131ec5761271083816131e2576131e1614ae9565b5b0492506004810190505b6064831061320f576064838161320557613204614ae9565b5b0492506002810190505b600a831061321e576001810190505b80915050919050565b60405180608001604052806000815260200160008152602001600073ffffffffffffffffffffffffffffffffffffffff1681526020016000151581525090565b82805461327390613c85565b90600052602060002090601f01602090048101928261329557600085556132dc565b82601f106132ae57805160ff19168380011785556132dc565b828001600101855582156132dc579182015b828111156132db5782518255916020019190600101906132c0565b5b5090506132e9919061332d565b5090565b5080546132f990613c85565b6000825580601f1061330b575061332a565b601f016020900490600052602060002090810190613329919061332d565b5b50565b5b8082111561334657600081600090555060010161332e565b5090565b6000604051905090565b600080fd5b600080fd5b60007fffffffff0000000000000000000000000000000000000000000000000000000082169050919050565b6133938161335e565b811461339e57600080fd5b50565b6000813590506133b08161338a565b92915050565b6000602082840312156133cc576133cb613354565b5b60006133da848285016133a1565b91505092915050565b60008115159050919050565b6133f8816133e3565b82525050565b600060208201905061341360008301846133ef565b92915050565b600081519050919050565b600082825260208201905092915050565b60005b83811015613453578082015181840152602081019050613438565b83811115613462576000848401525b50505050565b6000601f19601f8301169050919050565b600061348482613419565b61348e8185613424565b935061349e818560208601613435565b6134a781613468565b840191505092915050565b600060208201905081810360008301526134cc8184613479565b905092915050565b6000819050919050565b6134e7816134d4565b81146134f257600080fd5b50565b600081359050613504816134de565b92915050565b6000602082840312156135205761351f613354565b5b600061352e848285016134f5565b91505092915050565b600073ffffffffffffffffffffffffffffffffffffffff82169050919050565b600061356282613537565b9050919050565b61357281613557565b82525050565b600060208201905061358d6000830184613569565b92915050565b61359c81613557565b81146135a757600080fd5b50565b6000813590506135b981613593565b92915050565b600080604083850312156135d6576135d5613354565b5b60006135e4858286016135aa565b92505060206135f5858286016134f5565b9150509250929050565b613608816134d4565b82525050565b600060208201905061362360008301846135ff565b92915050565b600080604083850312156136405761363f613354565b5b600061364e858286016134f5565b925050602061365f858286016134f5565b9150509250929050565b60008060006060848603121561368257613681613354565b5b6000613690868287016135aa565b93505060206136a1868287016135aa565b92505060406136b2868287016134f5565b9150509250925092565b600081519050919050565b600082825260208201905092915050565b6000819050602082019050919050565b6136f1816134d4565b82525050565b61370081613557565b82525050565b61370f816133e3565b82525050565b60808201600082015161372b60008501826136e8565b50602082015161373e60208501826136e8565b50604082015161375160408501826136f7565b5060608201516137646060850182613706565b50505050565b60006137768383613715565b60808301905092915050565b6000602082019050919050565b600061379a826136bc565b6137a481856136c7565b93506137af836136d8565b8060005b838110156137e05781516137c7888261376a565b97506137d283613782565b9250506001810190506137b3565b5085935050505092915050565b60006020820190508181036000830152613807818461378f565b905092915050565b600080fd5b600080fd5b7f4e487b7100000000000000000000000000000000000000000000000000000000600052604160045260246000fd5b61385182613468565b810181811067ffffffffffffffff821117156138705761386f613819565b5b80604052505050565b600061388361334a565b905061388f8282613848565b919050565b600067ffffffffffffffff8211156138af576138ae613819565b5b6138b882613468565b9050602081019050919050565b82818337600083830152505050565b60006138e76138e284613894565b613879565b90508281526020810184848401111561390357613902613814565b5b61390e8482856138c5565b509392505050565b600082601f83011261392b5761392a61380f565b5b813561393b8482602086016138d4565b91505092915050565b60006020828403121561395a57613959613354565b5b600082013567ffffffffffffffff81111561397857613977613359565b5b61398484828501613916565b91505092915050565b6080820160008201516139a360008501826136e8565b5060208201516139b660208501826136e8565b5060408201516139c960408501826136f7565b5060608201516139dc6060850182613706565b50505050565b60006080820190506139f7600083018461398d565b92915050565b600060208284031215613a1357613a12613354565b5b6000613a21848285016135aa565b91505092915050565b613a33816133e3565b8114613a3e57600080fd5b50565b600081359050613a5081613a2a565b92915050565b60008060408385031215613a6d57613a6c613354565b5b6000613a7b858286016135aa565b9250506020613a8c85828601613a41565b9150509250929050565b600067ffffffffffffffff821115613ab157613ab0613819565b5b613aba82613468565b9050602081019050919050565b6000613ada613ad584613a96565b613879565b905082815260208101848484011115613af657613af5613814565b5b613b018482856138c5565b509392505050565b600082601f830112613b1e57613b1d61380f565b5b8135613b2e848260208601613ac7565b91505092915050565b60008060008060808587031215613b5157613b50613354565b5b6000613b5f878288016135aa565b9450506020613b70878288016135aa565b9350506040613b81878288016134f5565b925050606085013567ffffffffffffffff811115613ba257613ba1613359565b5b613bae87828801613b09565b91505092959194509250565b60008060408385031215613bd157613bd0613354565b5b600083013567ffffffffffffffff811115613bef57613bee613359565b5b613bfb85828601613916565b9250506020613c0c858286016134f5565b9150509250929050565b60008060408385031215613c2d57613c2c613354565b5b6000613c3b858286016135aa565b9250506020613c4c858286016135aa565b9150509250929050565b7f4e487b7100000000000000000000000000000000000000000000000000000000600052602260045260246000fd5b60006002820490506001821680613c9d57607f821691505b602082108103613cb057613caf613c56565b5b50919050565b7f4552433732313a20617070726f76616c20746f2063757272656e74206f776e6560008201527f7200000000000000000000000000000000000000000000000000000000000000602082015250565b6000613d12602183613424565b9150613d1d82613cb6565b604082019050919050565b60006020820190508181036000830152613d4181613d05565b9050919050565b7f4552433732313a20617070726f76652063616c6c6572206973206e6f7420746f60008201527f6b656e206f776e6572206f7220617070726f76656420666f7220616c6c000000602082015250565b6000613da4603d83613424565b9150613daf82613d48565b604082019050919050565b60006020820190508181036000830152613dd381613d97565b9050919050565b7f596f7520617265206e6f7420746865206f776e6572206f662074686973204e4660008201527f5400000000000000000000000000000000000000000000000000000000000000602082015250565b6000613e36602183613424565b9150613e4182613dda565b604082019050919050565b60006020820190508181036000830152613e6581613e29565b9050919050565b7f54686973204e465420697320616c7265616479206c6973746564000000000000600082015250565b6000613ea2601a83613424565b9150613ead82613e6c565b602082019050919050565b60006020820190508181036000830152613ed181613e95565b9050919050565b7f5072696365206d75737420626520657175616c20746f206c697374696e67207060008201527f7269636500000000000000000000000000000000000000000000000000000000602082015250565b6000613f34602483613424565b9150613f3f82613ed8565b604082019050919050565b60006020820190508181036000830152613f6381613f27565b9050919050565b7f4552433732313a2063616c6c6572206973206e6f7420746f6b656e206f776e6560008201527f72206f7220617070726f76656400000000000000000000000000000000000000602082015250565b6000613fc6602d83613424565b9150613fd182613f6a565b604082019050919050565b60006020820190508181036000830152613ff581613fb9565b9050919050565b7f596f7520616c726561647920746865206f776e6572206f662074686973204e4660008201527f5400000000000000000000000000000000000000000000000000000000000000602082015250565b6000614058602183613424565b915061406382613ffc565b604082019050919050565b600060208201905081810360008301526140878161404b565b9050919050565b7f5072696365206d75737420626520657175616c20746f20746865204e4654207060008201527f7269636500000000000000000000000000000000000000000000000000000000602082015250565b60006140ea602483613424565b91506140f58261408e565b604082019050919050565b60006020820190508181036000830152614119816140dd565b9050919050565b7f496e646578206d757374206265206c657373207468616e206f776e657220626160008201527f6c616e6365000000000000000000000000000000000000000000000000000000602082015250565b600061417c602583613424565b915061418782614120565b604082019050919050565b600060208201905081810360008301526141ab8161416f565b9050919050565b7f4e487b7100000000000000000000000000000000000000000000000000000000600052603260045260246000fd5b7f4e487b7100000000000000000000000000000000000000000000000000000000600052601160045260246000fd5b600061421b826134d4565b91507fffffffffffffffffffffffffffffffffffffffffffffffffffffffffffffffff820361424d5761424c6141e1565b5b600182019050919050565b600081905092915050565b600061426e82613419565b6142788185614258565b9350614288818560208601613435565b80840191505092915050565b60006142a08284614263565b915081905092915050565b7f496e646578206d757374206265206c657373207468616e20746f74616c20737560008201527f70706c7900000000000000000000000000000000000000000000000000000000602082015250565b6000614307602483613424565b9150614312826142ab565b604082019050919050565b60006020820190508181036000830152614336816142fa565b9050919050565b7f4552433732313a20696e76616c696420746f6b656e2049440000000000000000600082015250565b6000614373601883613424565b915061437e8261433d565b602082019050919050565b600060208201905081810360008301526143a281614366565b9050919050565b7f4552433732313a2061646472657373207a65726f206973206e6f74206120766160008201527f6c6964206f776e65720000000000000000000000000000000000000000000000602082015250565b6000614405602983613424565b9150614410826143a9565b604082019050919050565b60006020820190508181036000830152614434816143f8565b9050919050565b7f5072696365206d7573742062652067726561746572207468616e203000000000600082015250565b6000614471601c83613424565b915061447c8261443b565b602082019050919050565b600060208201905081810360008301526144a081614464565b9050919050565b7f5468697320746f6b656e2055524920616c726561647920657869737473000000600082015250565b60006144dd601d83613424565b91506144e8826144a7565b602082019050919050565b6000602082019050818103600083015261450c816144d0565b9050919050565b7f54686973204e4654206973206e6f74206c697374656400000000000000000000600082015250565b6000614549601683613424565b915061455482614513565b602082019050919050565b600060208201905081810360008301526145788161453c565b9050919050565b600061458b8285614263565b91506145978284614263565b91508190509392505050565b7f4f776e61626c653a206e6577206f776e657220697320746865207a65726f206160008201527f6464726573730000000000000000000000000000000000000000000000000000602082015250565b60006145ff602683613424565b915061460a826145a3565b604082019050919050565b6000602082019050818103600083015261462e816145f2565b9050919050565b7f4552433732313a207472616e736665722066726f6d20696e636f72726563742060008201527f6f776e6572000000000000000000000000000000000000000000000000000000602082015250565b6000614691602583613424565b915061469c82614635565b604082019050919050565b600060208201905081810360008301526146c081614684565b9050919050565b7f4552433732313a207472616e7366657220746f20746865207a65726f2061646460008201527f7265737300000000000000000000000000000000000000000000000000000000602082015250565b6000614723602483613424565b915061472e826146c7565b604082019050919050565b6000602082019050818103600083015261475281614716565b9050919050565b7f436f756e7465723a2064656372656d656e74206f766572666c6f770000000000600082015250565b600061478f601b83613424565b915061479a82614759565b602082019050919050565b600060208201905081810360008301526147be81614782565b9050919050565b7f4f776e61626c653a2063616c6c6572206973206e6f7420746865206f776e6572600082015250565b60006147fb602083613424565b9150614806826147c5565b602082019050919050565b6000602082019050818103600083015261482a816147ee565b9050919050565b7f4552433732313a20617070726f766520746f2063616c6c657200000000000000600082015250565b6000614867601983613424565b915061487282614831565b602082019050919050565b600060208201905081810360008301526148968161485a565b9050919050565b7f4552433732313a207472616e7366657220746f206e6f6e20455243373231526560008201527f63656976657220696d706c656d656e7465720000000000000000000000000000602082015250565b60006148f9603283613424565b91506149048261489d565b604082019050919050565b60006020820190508181036000830152614928816148ec565b9050919050565b7f45524337323155524953746f726167653a2055524920736574206f66206e6f6e60008201527f6578697374656e7420746f6b656e000000000000000000000000000000000000602082015250565b600061498b602e83613424565b91506149968261492f565b604082019050919050565b600060208201905081810360008301526149ba8161497e565b9050919050565b60006080820190506149d660008301876135ff565b6149e360208301866135ff565b6149f06040830185613569565b6149fd60608301846133ef565b95945050505050565b600081519050919050565b600082825260208201905092915050565b6000614a2d82614a06565b614a378185614a11565b9350614a47818560208601613435565b614a5081613468565b840191505092915050565b6000608082019050614a706000830187613569565b614a7d6020830186613569565b614a8a60408301856135ff565b8181036060830152614a9c8184614a22565b905095945050505050565b600081519050614ab68161338a565b92915050565b600060208284031215614ad257614ad1613354565b5b6000614ae084828501614aa7565b91505092915050565b7f4e487b7100000000000000000000000000000000000000000000000000000000600052601260045260246000fd5b6000614b23826134d4565b9150614b2e836134d4565b925082821015614b4157614b406141e1565b5b828203905092915050565b7f4e487b7100000000000000000000000000000000000000000000000000000000600052603160045260246000fd5b7f4552433732313a206d696e7420746f20746865207a65726f2061646472657373600082015250565b6000614bb1602083613424565b9150614bbc82614b7b565b602082019050919050565b60006020820190508181036000830152614be081614ba4565b9050919050565b7f4552433732313a20746f6b656e20616c7265616479206d696e74656400000000600082015250565b6000614c1d601c83613424565b9150614c2882614be7565b602082019050919050565b60006020820190508181036000830152614c4c81614c10565b905091905056fea2646970667358221220c1715f6f05346b2f5490f00ad0487c8038bdfd839c68e8b9c61a58c6e217f06f64736f6c634300080d0033",
  "immutableReferences": {},
  "source": "// SPDX-License-Identifier: MIT\r\n// Tells the Solidity compiler to compile only from v0.8.13 to v0.9.0\r\npragma solidity ^0.8.13;\r\nimport \"@openzeppelin/contracts/token/ERC721/extensions/ERC721URIStorage.sol\";\r\nimport \"@openzeppelin/contracts/utils/Counters.sol\";\r\nimport \"@openzeppelin/contracts/access/Ownable.sol\";\r\n\r\ncontract NftMarket is ERC721URIStorage, Ownable {\r\n    using Counters for Counters.Counter;\r\n    struct NftItem {\r\n        uint tokenId;\r\n        uint price;\r\n        address creator;\r\n        bool isListed;\r\n    }\r\n    Counters.Counter private _listedItems;\r\n    Counters.Counter private _tokenIds;\r\n    // tokenIds\r\n    uint256[] private _allNfts;\r\n    // tokenURI\r\n    mapping(string => bool) private _usedTokenURIs;\r\n    // NFT,tokenIdNFT\r\n    mapping(uint => NftItem) private _nftItems;\r\n    // tokenIdkey,_allNfts.lengthvalue\r\n    mapping(uint => uint) private _nftItemIndex;\r\n    mapping(address => mapping(uint => uint)) private _ownedTokens;\r\n    mapping(uint => uint) private _idToOwnerIndex;\r\n    // \r\n    uint public listingPrice = 0.025 ether;\r\n    \r\n    event NftItemCreated(uint tokenId, uint price, address creator, bool isListed);\r\n    constructor() ERC721(\"NftMarket\", \"NFTM\") {}\r\n\r\n    // \r\n    function setListingPrice(uint price) external onlyOwner {\r\n        require(price > 0, \"Price must be greater than 0\");\r\n        listingPrice = price;\r\n    }\r\n    // NFT\r\n    function burnTokenId(uint tokenId) public {\r\n        _burn(tokenId);\r\n    }\r\n    // NFT\r\n    function mintToken(string memory tokenURI, uint price) public payable returns (uint) {\r\n        require(!tokenURIExists(tokenURI), \"This token URI already exists\");\r\n        // \r\n        require(msg.value == listingPrice, \"Price must be equal to listing price\");\r\n        _tokenIds.increment();\r\n        _listedItems.increment();\r\n\r\n        uint newTokenId = _tokenIds.current();\r\n        _safeMint(msg.sender, newTokenId);\r\n        _setTokenURI(newTokenId, tokenURI);\r\n        _createNftItem(newTokenId, price);\r\n        _usedTokenURIs[tokenURI] = true;\r\n        return newTokenId;\r\n    }\r\n    // nft\r\n    function _createNftItem(uint tokenId, uint price) private {\r\n        require(price > 0, \"Price must be greater than 0\");\r\n        _nftItems[tokenId] = NftItem(tokenId, price, msg.sender, true);\r\n        emit NftItemCreated(tokenId, price, msg.sender, true);\r\n    }\r\n    // NFT\r\n    function getOwnedNfts() public view returns (NftItem[] memory) {\r\n        uint ownedNftsCount = balanceOf(msg.sender);\r\n        NftItem[] memory items = new NftItem[](ownedNftsCount);\r\n\r\n        for (uint i = 0; i < ownedNftsCount; i++) {\r\n            uint tokenId = tokenOfOwnerByIndex(msg.sender, i);\r\n            NftItem storage item = _nftItems[tokenId];\r\n            items[i] = item;\r\n        }\r\n\r\n        return items;\r\n    }\r\n    // nft\r\n    function totalSupply() public view returns (uint) {\r\n        return _allNfts.length;\r\n    }\r\n    // indextoken\r\n    function tokenByIndex(uint index) public view returns (uint) {\r\n        require(index < totalSupply(), \"Index must be less than total supply\");\r\n        return _allNfts[index];\r\n    }\r\n    // indextoken\r\n    function tokenOfOwnerByIndex(address owner, uint index) public view returns (uint) {\r\n        require(index < balanceOf(owner), \"Index must be less than owner balance\");\r\n        return _ownedTokens[owner][index];\r\n    }\r\n    // NFT\r\n    function getAllNftsOnSale() public view returns (NftItem[] memory) {\r\n        uint allItemsCounts = totalSupply();\r\n        uint currentIndex = 0;\r\n        NftItem[] memory items = new NftItem[](_listedItems.current());\r\n\r\n        for (uint i = 0; i < allItemsCounts; i++) {\r\n            uint tokenId = tokenByIndex(i);\r\n            NftItem storage item = _nftItems[tokenId];\r\n\r\n            if (item.isListed) {\r\n                items[currentIndex] = item;\r\n                currentIndex++;\r\n            }\r\n        }\r\n\r\n        return items;\r\n    }\r\n    \r\n    // NFT\r\n    function buyNft(uint tokenId) public payable {\r\n        // NFT\r\n        uint price = _nftItems[tokenId].price;\r\n        // NFT\r\n        address owner = ERC721.ownerOf(tokenId);\r\n        require(msg.sender != owner, \"You already the owner of this NFT\");\r\n        require(msg.value == price, \"Price must be equal to the NFT price\");\r\n        _nftItems[tokenId].isListed = false;\r\n        // nft\r\n        _listedItems.decrement();\r\n        // NFT\r\n        _transfer(owner, msg.sender, tokenId);\r\n        payable(owner).transfer(msg.value);\r\n    }\r\n\r\n    // Nft\r\n    function placeNftOnSale(uint tokenId, uint price) public payable {\r\n        require(msg.sender == ERC721.ownerOf(tokenId), \"You are not the owner of this NFT\");\r\n        require(_nftItems[tokenId].isListed == false, \"This NFT is already listed\");\r\n        require(msg.value == listingPrice, \"Price must be equal to listing price\");\r\n        _nftItems[tokenId].isListed = true;\r\n        _nftItems[tokenId].price = price;\r\n        _listedItems.increment();\r\n    }\r\n    // NFT\r\n    function cancelNftOnSale(uint tokenId) public {\r\n        require(msg.sender == ERC721.ownerOf(tokenId), \"You are not the owner of this NFT\");\r\n        require(_nftItems[tokenId].isListed == true, \"This NFT is not listed\");\r\n        _nftItems[tokenId].isListed = false;\r\n        _listedItems.decrement();\r\n    }\r\n\r\n    // NFT\r\n    function getNftItem(uint tokenId) public view returns (NftItem memory) {\r\n        return _nftItems[tokenId];\r\n    }\r\n    // nft\r\n    function listedItemsCount() public view returns (uint) {\r\n        return _listedItems.current();\r\n    }\r\n    // tokenURI\r\n    function tokenURIExists(string memory tokenURI) public view returns (bool) {\r\n        return _usedTokenURIs[tokenURI]==true;\r\n    }\r\n\r\n    function _beforeTokenTransfer(address from, address to, uint tokenId,uint256 batchSize) internal virtual override{\r\n        super._beforeTokenTransfer(from, to, tokenId, batchSize);\r\n        if (from == address(0)) {\r\n            _addTokenToAllTokensEnumeration(tokenId);\r\n        }else if (from != to) {\r\n            _removeTokenFromOwnerEnumeration(from, tokenId);\r\n        }\r\n        if(to == address(0)){\r\n            _removeTokenFromAllTokensEnumeration(tokenId);\r\n        } else if (to != from) {\r\n            _addTokenToOwnerEnumeration(to, tokenId);\r\n        }\r\n    }\r\n\r\n    function _addTokenToAllTokensEnumeration(uint tokenId) private {\r\n        _nftItemIndex[tokenId] = _allNfts.length;\r\n        _allNfts.push(tokenId);\r\n    }\r\n    // tokenId\r\n    function _addTokenToOwnerEnumeration(address to, uint tokenId) private {\r\n        // toNFT\r\n        uint length = balanceOf(to);\r\n        // tokenIdtoNFT\r\n        _ownedTokens[to][length] = tokenId;\r\n        // tokenIdtoNFTindex\r\n        _idToOwnerIndex[tokenId] = length;\r\n    }\r\n    // tokenId\r\n    function _removeTokenFromOwnerEnumeration(address from, uint tokenId) private {\r\n        // fromNFT\r\n        uint lastTokenIndex = balanceOf(from) - 1;\r\n        // tokenIdfromNFTindex\r\n        uint tokenIndex = _idToOwnerIndex[tokenId];\r\n        /**\r\n         * toukeIdfromNFTNFT\r\n         * fromNFTNFTtokenId\r\n         */\r\n        if(tokenIndex != lastTokenIndex){\r\n            // fromNFTNFTtokenId\r\n            uint lastTokenId = _ownedTokens[from][lastTokenIndex];\r\n            // fromNFTNFTtokenId\r\n            _ownedTokens[from][tokenIndex] = lastTokenId;\r\n            // TokenIdindex\r\n            _idToOwnerIndex[lastTokenId] = tokenIndex;\r\n        }\r\n        // tokenIdfromNFTindex\r\n        delete _idToOwnerIndex[tokenId];\r\n        // fromNFTNFT\r\n        delete _ownedTokens[from][lastTokenIndex];\r\n    }\r\n    // NFT\r\n    function _removeTokenFromAllTokensEnumeration(uint tokenId) private {\r\n        uint lastTokenIndex = _allNfts.length - 1;\r\n        uint tokenIndex = _nftItemIndex[tokenId];\r\n        uint lastTokenId = _allNfts[lastTokenIndex];\r\n\r\n        _allNfts[tokenIndex] = lastTokenId;\r\n        _nftItemIndex[lastTokenId] = tokenIndex;\r\n\r\n        delete _nftItemIndex[tokenId];\r\n        _allNfts.pop();\r\n    }\r\n}",
  "sourcePath": "C:\\Users\\bkyon\\Documents\\Dapp\\boundless-dapp\\boundless-be\\contracts\\NftMarket.sol",
  "compiler": {
    "name": "solc",
    "version": "0.8.13+commit.abaa5c0e.Emscripten.clang"
  },
  "schemaVersion": "3.4.14",
  "updatedAt": "2023-08-21T02:14:34.562Z",
  "networkType": "ethereum",
  "devdoc": {
    "kind": "dev",
    "methods": {
      "approve(address,uint256)": {
        "details": "See {IERC721-approve}."
      },
      "balanceOf(address)": {
        "details": "See {IERC721-balanceOf}."
      },
      "getApproved(uint256)": {
        "details": "See {IERC721-getApproved}."
      },
      "isApprovedForAll(address,address)": {
        "details": "See {IERC721-isApprovedForAll}."
      },
      "name()": {
        "details": "See {IERC721Metadata-name}."
      },
      "owner()": {
        "details": "Returns the address of the current owner."
      },
      "ownerOf(uint256)": {
        "details": "See {IERC721-ownerOf}."
      },
      "renounceOwnership()": {
        "details": "Leaves the contract without owner. It will not be possible to call `onlyOwner` functions. Can only be called by the current owner. NOTE: Renouncing ownership will leave the contract without an owner, thereby disabling any functionality that is only available to the owner."
      },
      "safeTransferFrom(address,address,uint256)": {
        "details": "See {IERC721-safeTransferFrom}."
      },
      "safeTransferFrom(address,address,uint256,bytes)": {
        "details": "See {IERC721-safeTransferFrom}."
      },
      "setApprovalForAll(address,bool)": {
        "details": "See {IERC721-setApprovalForAll}."
      },
      "supportsInterface(bytes4)": {
        "details": "See {IERC165-supportsInterface}"
      },
      "symbol()": {
        "details": "See {IERC721Metadata-symbol}."
      },
      "tokenURI(uint256)": {
        "details": "See {IERC721Metadata-tokenURI}."
      },
      "transferFrom(address,address,uint256)": {
        "details": "See {IERC721-transferFrom}."
      },
      "transferOwnership(address)": {
        "details": "Transfers ownership of the contract to a new account (`newOwner`). Can only be called by the current owner."
      }
    },
    "version": 1
  },
  "userdoc": {
    "kind": "user",
    "methods": {},
    "version": 1
  }
}