{
  "contractName": "NftMarket",
  "abi": [
    {
      "inputs": [],
      "stateMutability": "nonpayable",
      "type": "constructor"
    },
    {
      "anonymous": false,
      "inputs": [
        {
          "indexed": true,
          "internalType": "address",
          "name": "owner",
          "type": "address"
        },
        {
          "indexed": true,
          "internalType": "address",
          "name": "approved",
          "type": "address"
        },
        {
          "indexed": true,
          "internalType": "uint256",
          "name": "tokenId",
          "type": "uint256"
        }
      ],
      "name": "Approval",
      "type": "event"
    },
    {
      "anonymous": false,
      "inputs": [
        {
          "indexed": true,
          "internalType": "address",
          "name": "owner",
          "type": "address"
        },
        {
          "indexed": true,
          "internalType": "address",
          "name": "operator",
          "type": "address"
        },
        {
          "indexed": false,
          "internalType": "bool",
          "name": "approved",
          "type": "bool"
        }
      ],
      "name": "ApprovalForAll",
      "type": "event"
    },
    {
      "anonymous": false,
      "inputs": [
        {
          "indexed": false,
          "internalType": "uint256",
          "name": "_fromTokenId",
          "type": "uint256"
        },
        {
          "indexed": false,
          "internalType": "uint256",
          "name": "_toTokenId",
          "type": "uint256"
        }
      ],
      "name": "BatchMetadataUpdate",
      "type": "event"
    },
    {
      "anonymous": false,
      "inputs": [
        {
          "indexed": false,
          "internalType": "uint256",
          "name": "_tokenId",
          "type": "uint256"
        }
      ],
      "name": "MetadataUpdate",
      "type": "event"
    },
    {
      "anonymous": false,
      "inputs": [
        {
          "indexed": false,
          "internalType": "uint256",
          "name": "tokenId",
          "type": "uint256"
        },
        {
          "indexed": false,
          "internalType": "uint256",
          "name": "price",
          "type": "uint256"
        },
        {
          "indexed": false,
          "internalType": "address",
          "name": "creator",
          "type": "address"
        },
        {
          "indexed": false,
          "internalType": "bool",
          "name": "isListed",
          "type": "bool"
        }
      ],
      "name": "NftItemCreated",
      "type": "event"
    },
    {
      "anonymous": false,
      "inputs": [
        {
          "indexed": true,
          "internalType": "address",
          "name": "previousOwner",
          "type": "address"
        },
        {
          "indexed": true,
          "internalType": "address",
          "name": "newOwner",
          "type": "address"
        }
      ],
      "name": "OwnershipTransferred",
      "type": "event"
    },
    {
      "anonymous": false,
      "inputs": [
        {
          "indexed": true,
          "internalType": "address",
          "name": "from",
          "type": "address"
        },
        {
          "indexed": true,
          "internalType": "address",
          "name": "to",
          "type": "address"
        },
        {
          "indexed": true,
          "internalType": "uint256",
          "name": "tokenId",
          "type": "uint256"
        }
      ],
      "name": "Transfer",
      "type": "event"
    },
    {
      "inputs": [
        {
          "internalType": "address",
          "name": "to",
          "type": "address"
        },
        {
          "internalType": "uint256",
          "name": "tokenId",
          "type": "uint256"
        }
      ],
      "name": "approve",
      "outputs": [],
      "stateMutability": "nonpayable",
      "type": "function"
    },
    {
      "inputs": [
        {
          "internalType": "address",
          "name": "owner",
          "type": "address"
        }
      ],
      "name": "balanceOf",
      "outputs": [
        {
          "internalType": "uint256",
          "name": "",
          "type": "uint256"
        }
      ],
      "stateMutability": "view",
      "type": "function",
      "constant": true
    },
    {
      "inputs": [
        {
          "internalType": "uint256",
          "name": "tokenId",
          "type": "uint256"
        }
      ],
      "name": "getApproved",
      "outputs": [
        {
          "internalType": "address",
          "name": "",
          "type": "address"
        }
      ],
      "stateMutability": "view",
      "type": "function",
      "constant": true
    },
    {
      "inputs": [
        {
          "internalType": "address",
          "name": "owner",
          "type": "address"
        },
        {
          "internalType": "address",
          "name": "operator",
          "type": "address"
        }
      ],
      "name": "isApprovedForAll",
      "outputs": [
        {
          "internalType": "bool",
          "name": "",
          "type": "bool"
        }
      ],
      "stateMutability": "view",
      "type": "function",
      "constant": true
    },
    {
      "inputs": [],
      "name": "listingPrice",
      "outputs": [
        {
          "internalType": "uint256",
          "name": "",
          "type": "uint256"
        }
      ],
      "stateMutability": "view",
      "type": "function",
      "constant": true
    },
    {
      "inputs": [],
      "name": "name",
      "outputs": [
        {
          "internalType": "string",
          "name": "",
          "type": "string"
        }
      ],
      "stateMutability": "view",
      "type": "function",
      "constant": true
    },
    {
      "inputs": [],
      "name": "owner",
      "outputs": [
        {
          "internalType": "address",
          "name": "",
          "type": "address"
        }
      ],
      "stateMutability": "view",
      "type": "function",
      "constant": true
    },
    {
      "inputs": [
        {
          "internalType": "uint256",
          "name": "tokenId",
          "type": "uint256"
        }
      ],
      "name": "ownerOf",
      "outputs": [
        {
          "internalType": "address",
          "name": "",
          "type": "address"
        }
      ],
      "stateMutability": "view",
      "type": "function",
      "constant": true
    },
    {
      "inputs": [],
      "name": "renounceOwnership",
      "outputs": [],
      "stateMutability": "nonpayable",
      "type": "function"
    },
    {
      "inputs": [
        {
          "internalType": "address",
          "name": "from",
          "type": "address"
        },
        {
          "internalType": "address",
          "name": "to",
          "type": "address"
        },
        {
          "internalType": "uint256",
          "name": "tokenId",
          "type": "uint256"
        }
      ],
      "name": "safeTransferFrom",
      "outputs": [],
      "stateMutability": "nonpayable",
      "type": "function"
    },
    {
      "inputs": [
        {
          "internalType": "address",
          "name": "from",
          "type": "address"
        },
        {
          "internalType": "address",
          "name": "to",
          "type": "address"
        },
        {
          "internalType": "uint256",
          "name": "tokenId",
          "type": "uint256"
        },
        {
          "internalType": "bytes",
          "name": "data",
          "type": "bytes"
        }
      ],
      "name": "safeTransferFrom",
      "outputs": [],
      "stateMutability": "nonpayable",
      "type": "function"
    },
    {
      "inputs": [
        {
          "internalType": "address",
          "name": "operator",
          "type": "address"
        },
        {
          "internalType": "bool",
          "name": "approved",
          "type": "bool"
        }
      ],
      "name": "setApprovalForAll",
      "outputs": [],
      "stateMutability": "nonpayable",
      "type": "function"
    },
    {
      "inputs": [
        {
          "internalType": "bytes4",
          "name": "interfaceId",
          "type": "bytes4"
        }
      ],
      "name": "supportsInterface",
      "outputs": [
        {
          "internalType": "bool",
          "name": "",
          "type": "bool"
        }
      ],
      "stateMutability": "view",
      "type": "function",
      "constant": true
    },
    {
      "inputs": [],
      "name": "symbol",
      "outputs": [
        {
          "internalType": "string",
          "name": "",
          "type": "string"
        }
      ],
      "stateMutability": "view",
      "type": "function",
      "constant": true
    },
    {
      "inputs": [
        {
          "internalType": "uint256",
          "name": "tokenId",
          "type": "uint256"
        }
      ],
      "name": "tokenURI",
      "outputs": [
        {
          "internalType": "string",
          "name": "",
          "type": "string"
        }
      ],
      "stateMutability": "view",
      "type": "function",
      "constant": true
    },
    {
      "inputs": [
        {
          "internalType": "address",
          "name": "from",
          "type": "address"
        },
        {
          "internalType": "address",
          "name": "to",
          "type": "address"
        },
        {
          "internalType": "uint256",
          "name": "tokenId",
          "type": "uint256"
        }
      ],
      "name": "transferFrom",
      "outputs": [],
      "stateMutability": "nonpayable",
      "type": "function"
    },
    {
      "inputs": [
        {
          "internalType": "address",
          "name": "newOwner",
          "type": "address"
        }
      ],
      "name": "transferOwnership",
      "outputs": [],
      "stateMutability": "nonpayable",
      "type": "function"
    },
    {
      "inputs": [
        {
          "internalType": "uint256",
          "name": "price",
          "type": "uint256"
        }
      ],
      "name": "setListingPrice",
      "outputs": [],
      "stateMutability": "nonpayable",
      "type": "function"
    },
    {
      "inputs": [
        {
          "internalType": "string",
          "name": "tokenURI",
          "type": "string"
        },
        {
          "internalType": "uint256",
          "name": "price",
          "type": "uint256"
        }
      ],
      "name": "mintToken",
      "outputs": [
        {
          "internalType": "uint256",
          "name": "",
          "type": "uint256"
        }
      ],
      "stateMutability": "payable",
      "type": "function",
      "payable": true
    },
    {
      "inputs": [],
      "name": "getOwnedNfts",
      "outputs": [
        {
          "components": [
            {
              "internalType": "uint256",
              "name": "tokenId",
              "type": "uint256"
            },
            {
              "internalType": "uint256",
              "name": "price",
              "type": "uint256"
            },
            {
              "internalType": "address",
              "name": "creator",
              "type": "address"
            },
            {
              "internalType": "bool",
              "name": "isListed",
              "type": "bool"
            }
          ],
          "internalType": "struct NftMarket.NftItem[]",
          "name": "",
          "type": "tuple[]"
        }
      ],
      "stateMutability": "view",
      "type": "function",
      "constant": true
    },
    {
      "inputs": [],
      "name": "totalSupply",
      "outputs": [
        {
          "internalType": "uint256",
          "name": "",
          "type": "uint256"
        }
      ],
      "stateMutability": "view",
      "type": "function",
      "constant": true
    },
    {
      "inputs": [
        {
          "internalType": "uint256",
          "name": "index",
          "type": "uint256"
        }
      ],
      "name": "tokenByIndex",
      "outputs": [
        {
          "internalType": "uint256",
          "name": "",
          "type": "uint256"
        }
      ],
      "stateMutability": "view",
      "type": "function",
      "constant": true
    },
    {
      "inputs": [
        {
          "internalType": "address",
          "name": "owner",
          "type": "address"
        },
        {
          "internalType": "uint256",
          "name": "index",
          "type": "uint256"
        }
      ],
      "name": "tokenOfOwnerByIndex",
      "outputs": [
        {
          "internalType": "uint256",
          "name": "",
          "type": "uint256"
        }
      ],
      "stateMutability": "view",
      "type": "function",
      "constant": true
    },
    {
      "inputs": [],
      "name": "getAllNftsOnSale",
      "outputs": [
        {
          "components": [
            {
              "internalType": "uint256",
              "name": "tokenId",
              "type": "uint256"
            },
            {
              "internalType": "uint256",
              "name": "price",
              "type": "uint256"
            },
            {
              "internalType": "address",
              "name": "creator",
              "type": "address"
            },
            {
              "internalType": "bool",
              "name": "isListed",
              "type": "bool"
            }
          ],
          "internalType": "struct NftMarket.NftItem[]",
          "name": "",
          "type": "tuple[]"
        }
      ],
      "stateMutability": "view",
      "type": "function",
      "constant": true
    },
    {
      "inputs": [
        {
          "internalType": "uint256",
          "name": "tokenId",
          "type": "uint256"
        }
      ],
      "name": "buyNft",
      "outputs": [],
      "stateMutability": "payable",
      "type": "function",
      "payable": true
    },
    {
      "inputs": [
        {
          "internalType": "uint256",
          "name": "tokenId",
          "type": "uint256"
        },
        {
          "internalType": "uint256",
          "name": "price",
          "type": "uint256"
        }
      ],
      "name": "placeNftOnSale",
      "outputs": [],
      "stateMutability": "payable",
      "type": "function",
      "payable": true
    },
    {
      "inputs": [
        {
          "internalType": "uint256",
          "name": "tokenId",
          "type": "uint256"
        }
      ],
      "name": "cancelNftOnSale",
      "outputs": [],
      "stateMutability": "nonpayable",
      "type": "function"
    },
    {
      "inputs": [
        {
          "internalType": "uint256",
          "name": "tokenId",
          "type": "uint256"
        }
      ],
      "name": "getNftItem",
      "outputs": [
        {
          "components": [
            {
              "internalType": "uint256",
              "name": "tokenId",
              "type": "uint256"
            },
            {
              "internalType": "uint256",
              "name": "price",
              "type": "uint256"
            },
            {
              "internalType": "address",
              "name": "creator",
              "type": "address"
            },
            {
              "internalType": "bool",
              "name": "isListed",
              "type": "bool"
            }
          ],
          "internalType": "struct NftMarket.NftItem",
          "name": "",
          "type": "tuple"
        }
      ],
      "stateMutability": "view",
      "type": "function",
      "constant": true
    },
    {
      "inputs": [],
      "name": "listedItemsCount",
      "outputs": [
        {
          "internalType": "uint256",
          "name": "",
          "type": "uint256"
        }
      ],
      "stateMutability": "view",
      "type": "function",
      "constant": true
    },
    {
      "inputs": [
        {
          "internalType": "string",
          "name": "tokenURI",
          "type": "string"
        }
      ],
      "name": "tokenURIExists",
      "outputs": [
        {
          "internalType": "bool",
          "name": "",
          "type": "bool"
        }
      ],
      "stateMutability": "view",
      "type": "function",
      "constant": true
    }
  ],
  "bytecode": "0x60806040526658d15e176280006010553480156200001c57600080fd5b506040518060400160405280600981526020017f4e66744d61726b657400000000000000000000000000000000000000000000008152506040518060400160405280600481526020017f4e46544d000000000000000000000000000000000000000000000000000000008152508160009080519060200190620000a1929190620001b1565b508060019080519060200190620000ba929190620001b1565b505050620000dd620000d1620000e360201b60201c565b620000eb60201b60201c565b620002c5565b600033905090565b6000600760009054906101000a900473ffffffffffffffffffffffffffffffffffffffff16905081600760006101000a81548173ffffffffffffffffffffffffffffffffffffffff021916908373ffffffffffffffffffffffffffffffffffffffff1602179055508173ffffffffffffffffffffffffffffffffffffffff168173ffffffffffffffffffffffffffffffffffffffff167f8be0079c531659141344cd1fd0a4f28419497f9722a3daafe3b4186f6b6457e060405160405180910390a35050565b828054620001bf9062000290565b90600052602060002090601f016020900481019282620001e357600085556200022f565b82601f10620001fe57805160ff19168380011785556200022f565b828001600101855582156200022f579182015b828111156200022e57825182559160200191906001019062000211565b5b5090506200023e919062000242565b5090565b5b808211156200025d57600081600090555060010162000243565b5090565b7f4e487b7100000000000000000000000000000000000000000000000000000000600052602260045260246000fd5b60006002820490506001821680620002a957607f821691505b602082108103620002bf57620002be62000261565b5b50919050565b614a6880620002d56000396000f3fe6080604052600436106101cd5760003560e01c806370a08231116100f7578063b88d4fde11610095578063c87b56dd11610064578063c87b56dd14610685578063ccb4918d146106c2578063e985e9c5146106ed578063f2fde38b1461072a576101cd565b8063b88d4fde146105d8578063c046372c14610601578063c5c889b014610631578063c78f19f91461065a576101cd565b80637c726b69116100d15780637c726b69146105305780638da5cb5b1461055957806395d89b4114610584578063a22cb465146105af576101cd565b806370a08231146104b157806370cbcb43146104ee578063715018a614610519576101cd565b8063243adbdd1161016f57806343d32ae71161013e57806343d32ae7146103bd5780634f6ccce7146103fa5780636352211e146104375780636f1a0af514610474576101cd565b8063243adbdd146103105780632f745c591461032c57806336b536be1461036957806342842e0e14610394576101cd565b8063095ea7b3116101ab578063095ea7b31461027757806318160ddd146102a057806321f422e5146102cb57806323b872dd146102e7576101cd565b806301ffc9a7146101d257806306fdde031461020f578063081812fc1461023a575b600080fd5b3480156101de57600080fd5b506101f960048036038101906101f49190613195565b610753565b60405161020691906131dd565b60405180910390f35b34801561021b57600080fd5b506102246107b4565b6040516102319190613291565b60405180910390f35b34801561024657600080fd5b50610261600480360381019061025c91906132e9565b610846565b60405161026e9190613357565b60405180910390f35b34801561028357600080fd5b5061029e6004803603810190610299919061339e565b61088c565b005b3480156102ac57600080fd5b506102b56109a3565b6040516102c291906133ed565b60405180910390f35b6102e560048036038101906102e09190613408565b6109b0565b005b3480156102f357600080fd5b5061030e60048036038101906103099190613448565b610b2c565b005b61032a600480360381019061032591906132e9565b610b8c565b005b34801561033857600080fd5b50610353600480360381019061034e919061339e565b610cf4565b60405161036091906133ed565b60405180910390f35b34801561037557600080fd5b5061037e610d99565b60405161038b91906135cc565b60405180910390f35b3480156103a057600080fd5b506103bb60048036038101906103b69190613448565b610f2c565b005b3480156103c957600080fd5b506103e460048036038101906103df9190613723565b610f4c565b6040516103f191906131dd565b60405180910390f35b34801561040657600080fd5b50610421600480360381019061041c91906132e9565b610f88565b60405161042e91906133ed565b60405180910390f35b34801561044357600080fd5b5061045e600480360381019061045991906132e9565b610ff9565b60405161046b9190613357565b60405180910390f35b34801561048057600080fd5b5061049b600480360381019061049691906132e9565b61107f565b6040516104a891906137c1565b60405180910390f35b3480156104bd57600080fd5b506104d860048036038101906104d391906137dc565b611131565b6040516104e591906133ed565b60405180910390f35b3480156104fa57600080fd5b506105036111e8565b60405161051091906135cc565b60405180910390f35b34801561052557600080fd5b5061052e61134c565b005b34801561053c57600080fd5b50610557600480360381019061055291906132e9565b611360565b005b34801561056557600080fd5b5061056e6113b5565b60405161057b9190613357565b60405180910390f35b34801561059057600080fd5b506105996113df565b6040516105a69190613291565b60405180910390f35b3480156105bb57600080fd5b506105d660048036038101906105d19190613835565b611471565b005b3480156105e457600080fd5b506105ff60048036038101906105fa9190613916565b611487565b005b61061b60048036038101906106169190613999565b6114e9565b60405161062891906133ed565b60405180910390f35b34801561063d57600080fd5b50610658600480360381019061065391906132e9565b6115f9565b005b34801561066657600080fd5b5061066f611715565b60405161067c91906133ed565b60405180910390f35b34801561069157600080fd5b506106ac60048036038101906106a791906132e9565b61171b565b6040516106b99190613291565b60405180910390f35b3480156106ce57600080fd5b506106d761182d565b6040516106e491906133ed565b60405180910390f35b3480156106f957600080fd5b50610714600480360381019061070f91906139f5565b61183e565b60405161072191906131dd565b60405180910390f35b34801561073657600080fd5b50610751600480360381019061074c91906137dc565b6118d2565b005b6000634906490660e01b7bffffffffffffffffffffffffffffffffffffffffffffffffffffffff1916827bffffffffffffffffffffffffffffffffffffffffffffffffffffffff191614806107ad57506107ac82611955565b5b9050919050565b6060600080546107c390613a64565b80601f01602080910402602001604051908101604052809291908181526020018280546107ef90613a64565b801561083c5780601f106108115761010080835404028352916020019161083c565b820191906000526020600020905b81548152906001019060200180831161081f57829003601f168201915b5050505050905090565b600061085182611a37565b6004600083815260200190815260200160002060009054906101000a900473ffffffffffffffffffffffffffffffffffffffff169050919050565b600061089782610ff9565b90508073ffffffffffffffffffffffffffffffffffffffff168373ffffffffffffffffffffffffffffffffffffffff1603610907576040517f08c379a00000000000000000000000000000000000000000000000000000000081526004016108fe90613b07565b60405180910390fd5b8073ffffffffffffffffffffffffffffffffffffffff16610926611a82565b73ffffffffffffffffffffffffffffffffffffffff16148061095557506109548161094f611a82565b61183e565b5b610994576040517f08c379a000000000000000000000000000000000000000000000000000000000815260040161098b90613b99565b60405180910390fd5b61099e8383611a8a565b505050565b6000600a80549050905090565b6109b982610ff9565b73ffffffffffffffffffffffffffffffffffffffff163373ffffffffffffffffffffffffffffffffffffffff1614610a26576040517f08c379a0000000000000000000000000000000000000000000000000000000008152600401610a1d90613c2b565b60405180910390fd5b60001515600c600084815260200190815260200160002060020160149054906101000a900460ff16151514610a90576040517f08c379a0000000000000000000000000000000000000000000000000000000008152600401610a8790613c97565b60405180910390fd5b6010543414610ad4576040517f08c379a0000000000000000000000000000000000000000000000000000000008152600401610acb90613d29565b60405180910390fd5b6001600c600084815260200190815260200160002060020160146101000a81548160ff02191690831515021790555080600c600084815260200190815260200160002060010181905550610b286008611b43565b5050565b610b3d610b37611a82565b82611b59565b610b7c576040517f08c379a0000000000000000000000000000000000000000000000000000000008152600401610b7390613dbb565b60405180910390fd5b610b87838383611bee565b505050565b6000600c60008381526020019081526020016000206001015490506000610bb283610ff9565b90508073ffffffffffffffffffffffffffffffffffffffff163373ffffffffffffffffffffffffffffffffffffffff1603610c22576040517f08c379a0000000000000000000000000000000000000000000000000000000008152600401610c1990613e4d565b60405180910390fd5b813414610c64576040517f08c379a0000000000000000000000000000000000000000000000000000000008152600401610c5b90613edf565b60405180910390fd5b6000600c600085815260200190815260200160002060020160146101000a81548160ff021916908315150217905550610c9d6008611ee7565b610ca8813385611bee565b8073ffffffffffffffffffffffffffffffffffffffff166108fc349081150290604051600060405180830381858888f19350505050158015610cee573d6000803e3d6000fd5b50505050565b6000610cff83611131565b8210610d40576040517f08c379a0000000000000000000000000000000000000000000000000000000008152600401610d3790613f71565b60405180910390fd5b600e60008473ffffffffffffffffffffffffffffffffffffffff1673ffffffffffffffffffffffffffffffffffffffff168152602001908152602001600020600083815260200190815260200160002054905092915050565b60606000610da56109a3565b9050600080610db46008611f43565b67ffffffffffffffff811115610dcd57610dcc6135f8565b5b604051908082528060200260200182016040528015610e0657816020015b610df3613046565b815260200190600190039081610deb5790505b50905060005b83811015610f22576000610e1f82610f88565b90506000600c600083815260200190815260200160002090508060020160149054906101000a900460ff1615610f0d578060405180608001604052908160008201548152602001600182015481526020016002820160009054906101000a900473ffffffffffffffffffffffffffffffffffffffff1673ffffffffffffffffffffffffffffffffffffffff1673ffffffffffffffffffffffffffffffffffffffff1681526020016002820160149054906101000a900460ff161515151581525050848681518110610ef357610ef2613f91565b5b60200260200101819052508480610f0990613fef565b9550505b50508080610f1a90613fef565b915050610e0c565b5080935050505090565b610f4783838360405180602001604052806000815250611487565b505050565b600060011515600b83604051610f629190614073565b908152602001604051809103902060009054906101000a900460ff161515149050919050565b6000610f926109a3565b8210610fd3576040517f08c379a0000000000000000000000000000000000000000000000000000000008152600401610fca906140fc565b60405180910390fd5b600a8281548110610fe757610fe6613f91565b5b90600052602060002001549050919050565b60008061100583611f51565b9050600073ffffffffffffffffffffffffffffffffffffffff168173ffffffffffffffffffffffffffffffffffffffff1603611076576040517f08c379a000000000000000000000000000000000000000000000000000000000815260040161106d90614168565b60405180910390fd5b80915050919050565b611087613046565b600c600083815260200190815260200160002060405180608001604052908160008201548152602001600182015481526020016002820160009054906101000a900473ffffffffffffffffffffffffffffffffffffffff1673ffffffffffffffffffffffffffffffffffffffff1673ffffffffffffffffffffffffffffffffffffffff1681526020016002820160149054906101000a900460ff1615151515815250509050919050565b60008073ffffffffffffffffffffffffffffffffffffffff168273ffffffffffffffffffffffffffffffffffffffff16036111a1576040517f08c379a0000000000000000000000000000000000000000000000000000000008152600401611198906141fa565b60405180910390fd5b600360008373ffffffffffffffffffffffffffffffffffffffff1673ffffffffffffffffffffffffffffffffffffffff168152602001908152602001600020549050919050565b606060006111f533611131565b905060008167ffffffffffffffff811115611213576112126135f8565b5b60405190808252806020026020018201604052801561124c57816020015b611239613046565b8152602001906001900390816112315790505b50905060005b828110156113435760006112663383610cf4565b90506000600c600083815260200190815260200160002090508060405180608001604052908160008201548152602001600182015481526020016002820160009054906101000a900473ffffffffffffffffffffffffffffffffffffffff1673ffffffffffffffffffffffffffffffffffffffff1673ffffffffffffffffffffffffffffffffffffffff1681526020016002820160149054906101000a900460ff16151515158152505084848151811061132357611322613f91565b5b60200260200101819052505050808061133b90613fef565b915050611252565b50809250505090565b611354611f8e565b61135e600061200c565b565b611368611f8e565b600081116113ab576040517f08c379a00000000000000000000000000000000000000000000000000000000081526004016113a290614266565b60405180910390fd5b8060108190555050565b6000600760009054906101000a900473ffffffffffffffffffffffffffffffffffffffff16905090565b6060600180546113ee90613a64565b80601f016020809104026020016040519081016040528092919081815260200182805461141a90613a64565b80156114675780601f1061143c57610100808354040283529160200191611467565b820191906000526020600020905b81548152906001019060200180831161144a57829003601f168201915b5050505050905090565b61148361147c611a82565b83836120d2565b5050565b611498611492611a82565b83611b59565b6114d7576040517f08c379a00000000000000000000000000000000000000000000000000000000081526004016114ce90613dbb565b60405180910390fd5b6114e38484848461223e565b50505050565b60006114f483610f4c565b15611534576040517f08c379a000000000000000000000000000000000000000000000000000000000815260040161152b906142d2565b60405180910390fd5b6010543414611578576040517f08c379a000000000000000000000000000000000000000000000000000000000815260040161156f90613d29565b60405180910390fd5b6115826009611b43565b61158c6008611b43565b60006115986009611f43565b90506115a4338261229a565b6115ae81856122b8565b6115b88184612363565b6001600b856040516115ca9190614073565b908152602001604051809103902060006101000a81548160ff0219169083151502179055508091505092915050565b61160281610ff9565b73ffffffffffffffffffffffffffffffffffffffff163373ffffffffffffffffffffffffffffffffffffffff161461166f576040517f08c379a000000000000000000000000000000000000000000000000000000000815260040161166690613c2b565b60405180910390fd5b60011515600c600083815260200190815260200160002060020160149054906101000a900460ff161515146116d9576040517f08c379a00000000000000000000000000000000000000000000000000000000081526004016116d09061433e565b60405180910390fd5b6000600c600083815260200190815260200160002060020160146101000a81548160ff0219169083151502179055506117126008611ee7565b50565b60105481565b606061172682611a37565b600060066000848152602001908152602001600020805461174690613a64565b80601f016020809104026020016040519081016040528092919081815260200182805461177290613a64565b80156117bf5780601f10611794576101008083540402835291602001916117bf565b820191906000526020600020905b8154815290600101906020018083116117a257829003601f168201915b5050505050905060006117d06124b3565b905060008151036117e5578192505050611828565b60008251111561181a57808260405160200161180292919061435e565b60405160208183030381529060405292505050611828565b611823846124ca565b925050505b919050565b60006118396008611f43565b905090565b6000600560008473ffffffffffffffffffffffffffffffffffffffff1673ffffffffffffffffffffffffffffffffffffffff16815260200190815260200160002060008373ffffffffffffffffffffffffffffffffffffffff1673ffffffffffffffffffffffffffffffffffffffff16815260200190815260200160002060009054906101000a900460ff16905092915050565b6118da611f8e565b600073ffffffffffffffffffffffffffffffffffffffff168173ffffffffffffffffffffffffffffffffffffffff1603611949576040517f08c379a0000000000000000000000000000000000000000000000000000000008152600401611940906143f4565b60405180910390fd5b6119528161200c565b50565b60007f80ac58cd000000000000000000000000000000000000000000000000000000007bffffffffffffffffffffffffffffffffffffffffffffffffffffffff1916827bffffffffffffffffffffffffffffffffffffffffffffffffffffffff19161480611a2057507f5b5e139f000000000000000000000000000000000000000000000000000000007bffffffffffffffffffffffffffffffffffffffffffffffffffffffff1916827bffffffffffffffffffffffffffffffffffffffffffffffffffffffff1916145b80611a305750611a2f82612532565b5b9050919050565b611a408161259c565b611a7f576040517f08c379a0000000000000000000000000000000000000000000000000000000008152600401611a7690614168565b60405180910390fd5b50565b600033905090565b816004600083815260200190815260200160002060006101000a81548173ffffffffffffffffffffffffffffffffffffffff021916908373ffffffffffffffffffffffffffffffffffffffff160217905550808273ffffffffffffffffffffffffffffffffffffffff16611afd83610ff9565b73ffffffffffffffffffffffffffffffffffffffff167f8c5be1e5ebec7d5bd14f71427d1e84f3dd0314c0f7b2291e5b200ac8c7c3b92560405160405180910390a45050565b6001816000016000828254019250508190555050565b600080611b6583610ff9565b90508073ffffffffffffffffffffffffffffffffffffffff168473ffffffffffffffffffffffffffffffffffffffff161480611ba75750611ba6818561183e565b5b80611be557508373ffffffffffffffffffffffffffffffffffffffff16611bcd84610846565b73ffffffffffffffffffffffffffffffffffffffff16145b91505092915050565b8273ffffffffffffffffffffffffffffffffffffffff16611c0e82610ff9565b73ffffffffffffffffffffffffffffffffffffffff1614611c64576040517f08c379a0000000000000000000000000000000000000000000000000000000008152600401611c5b90614486565b60405180910390fd5b600073ffffffffffffffffffffffffffffffffffffffff168273ffffffffffffffffffffffffffffffffffffffff1603611cd3576040517f08c379a0000000000000000000000000000000000000000000000000000000008152600401611cca90614518565b60405180910390fd5b611ce083838360016125dd565b8273ffffffffffffffffffffffffffffffffffffffff16611d0082610ff9565b73ffffffffffffffffffffffffffffffffffffffff1614611d56576040517f08c379a0000000000000000000000000000000000000000000000000000000008152600401611d4d90614486565b60405180910390fd5b6004600082815260200190815260200160002060006101000a81549073ffffffffffffffffffffffffffffffffffffffff02191690556001600360008573ffffffffffffffffffffffffffffffffffffffff1673ffffffffffffffffffffffffffffffffffffffff168152602001908152602001600020600082825403925050819055506001600360008473ffffffffffffffffffffffffffffffffffffffff1673ffffffffffffffffffffffffffffffffffffffff16815260200190815260200160002060008282540192505081905550816002600083815260200190815260200160002060006101000a81548173ffffffffffffffffffffffffffffffffffffffff021916908373ffffffffffffffffffffffffffffffffffffffff160217905550808273ffffffffffffffffffffffffffffffffffffffff168473ffffffffffffffffffffffffffffffffffffffff167fddf252ad1be2c89b69c2b068fc378daa952ba7f163c4a11628f55a4df523b3ef60405160405180910390a4611ee283838360016126f1565b505050565b60008160000154905060008111611f33576040517f08c379a0000000000000000000000000000000000000000000000000000000008152600401611f2a90614584565b60405180910390fd5b6001810382600001819055505050565b600081600001549050919050565b60006002600083815260200190815260200160002060009054906101000a900473ffffffffffffffffffffffffffffffffffffffff169050919050565b611f96611a82565b73ffffffffffffffffffffffffffffffffffffffff16611fb46113b5565b73ffffffffffffffffffffffffffffffffffffffff161461200a576040517f08c379a0000000000000000000000000000000000000000000000000000000008152600401612001906145f0565b60405180910390fd5b565b6000600760009054906101000a900473ffffffffffffffffffffffffffffffffffffffff16905081600760006101000a81548173ffffffffffffffffffffffffffffffffffffffff021916908373ffffffffffffffffffffffffffffffffffffffff1602179055508173ffffffffffffffffffffffffffffffffffffffff168173ffffffffffffffffffffffffffffffffffffffff167f8be0079c531659141344cd1fd0a4f28419497f9722a3daafe3b4186f6b6457e060405160405180910390a35050565b8173ffffffffffffffffffffffffffffffffffffffff168373ffffffffffffffffffffffffffffffffffffffff1603612140576040517f08c379a00000000000000000000000000000000000000000000000000000000081526004016121379061465c565b60405180910390fd5b80600560008573ffffffffffffffffffffffffffffffffffffffff1673ffffffffffffffffffffffffffffffffffffffff16815260200190815260200160002060008473ffffffffffffffffffffffffffffffffffffffff1673ffffffffffffffffffffffffffffffffffffffff16815260200190815260200160002060006101000a81548160ff0219169083151502179055508173ffffffffffffffffffffffffffffffffffffffff168373ffffffffffffffffffffffffffffffffffffffff167f17307eab39ab6107e8899845ad3d59bd9653f200f220920489ca2b5937696c318360405161223191906131dd565b60405180910390a3505050565b612249848484611bee565b612255848484846126f7565b612294576040517f08c379a000000000000000000000000000000000000000000000000000000000815260040161228b906146ee565b60405180910390fd5b50505050565b6122b482826040518060200160405280600081525061287e565b5050565b6122c18261259c565b612300576040517f08c379a00000000000000000000000000000000000000000000000000000000081526004016122f790614780565b60405180910390fd5b80600660008481526020019081526020016000209080519060200190612327929190613086565b507ff8e1a15aba9398e019f0b49df1a4fde98ee17ae345cb5f6b5e2c27f5033e8ce78260405161235791906133ed565b60405180910390a15050565b600081116123a6576040517f08c379a000000000000000000000000000000000000000000000000000000000815260040161239d90614266565b60405180910390fd5b60405180608001604052808381526020018281526020013373ffffffffffffffffffffffffffffffffffffffff16815260200160011515815250600c6000848152602001908152602001600020600082015181600001556020820151816001015560408201518160020160006101000a81548173ffffffffffffffffffffffffffffffffffffffff021916908373ffffffffffffffffffffffffffffffffffffffff16021790555060608201518160020160146101000a81548160ff0219169083151502179055509050507f470031062672bc0246e132c723a729c4676710ec663a29e86c88678032daddea82823360016040516124a794939291906147a0565b60405180910390a15050565b606060405180602001604052806000815250905090565b60606124d582611a37565b60006124df6124b3565b905060008151116124ff576040518060200160405280600081525061252a565b80612509846128d9565b60405160200161251a92919061435e565b6040516020818303038152906040525b915050919050565b60007f01ffc9a7000000000000000000000000000000000000000000000000000000007bffffffffffffffffffffffffffffffffffffffffffffffffffffffff1916827bffffffffffffffffffffffffffffffffffffffffffffffffffffffff1916149050919050565b60008073ffffffffffffffffffffffffffffffffffffffff166125be83611f51565b73ffffffffffffffffffffffffffffffffffffffff1614159050919050565b6125e9848484846129a7565b600073ffffffffffffffffffffffffffffffffffffffff168473ffffffffffffffffffffffffffffffffffffffff160361262b57612626826129ad565b61266a565b8273ffffffffffffffffffffffffffffffffffffffff168473ffffffffffffffffffffffffffffffffffffffff16146126695761266884836129f6565b5b5b600073ffffffffffffffffffffffffffffffffffffffff168373ffffffffffffffffffffffffffffffffffffffff16036126ac576126a782612b63565b6126eb565b8373ffffffffffffffffffffffffffffffffffffffff168373ffffffffffffffffffffffffffffffffffffffff16146126ea576126e98383612c34565b5b5b50505050565b50505050565b60006127188473ffffffffffffffffffffffffffffffffffffffff16612cb3565b15612871578373ffffffffffffffffffffffffffffffffffffffff1663150b7a02612741611a82565b8786866040518563ffffffff1660e01b8152600401612763949392919061483a565b6020604051808303816000875af192505050801561279f57506040513d601f19601f8201168201806040525081019061279c919061489b565b60015b612821573d80600081146127cf576040519150601f19603f3d011682016040523d82523d6000602084013e6127d4565b606091505b506000815103612819576040517f08c379a0000000000000000000000000000000000000000000000000000000008152600401612810906146ee565b60405180910390fd5b805181602001fd5b63150b7a0260e01b7bffffffffffffffffffffffffffffffffffffffffffffffffffffffff1916817bffffffffffffffffffffffffffffffffffffffffffffffffffffffff191614915050612876565b600190505b949350505050565b6128888383612cd6565b61289560008484846126f7565b6128d4576040517f08c379a00000000000000000000000000000000000000000000000000000000081526004016128cb906146ee565b60405180910390fd5b505050565b6060600060016128e884612ef3565b01905060008167ffffffffffffffff811115612907576129066135f8565b5b6040519080825280601f01601f1916602001820160405280156129395781602001600182028036833780820191505090505b509050600082602001820190505b60011561299c578080600190039150507f3031323334353637383961626364656600000000000000000000000000000000600a86061a8153600a85816129905761298f6148c8565b5b04945060008503612947575b819350505050919050565b50505050565b600a80549050600d600083815260200190815260200160002081905550600a81908060018154018082558091505060019003906000526020600020016000909190919091505550565b60006001612a0384611131565b612a0d91906148f7565b90506000600f6000848152602001908152602001600020549050818114612af2576000600e60008673ffffffffffffffffffffffffffffffffffffffff1673ffffffffffffffffffffffffffffffffffffffff168152602001908152602001600020600084815260200190815260200160002054905080600e60008773ffffffffffffffffffffffffffffffffffffffff1673ffffffffffffffffffffffffffffffffffffffff16815260200190815260200160002060008481526020019081526020016000208190555081600f600083815260200190815260200160002081905550505b600f600084815260200190815260200160002060009055600e60008573ffffffffffffffffffffffffffffffffffffffff1673ffffffffffffffffffffffffffffffffffffffff16815260200190815260200160002060008381526020019081526020016000206000905550505050565b60006001600a80549050612b7791906148f7565b90506000600d60008481526020019081526020016000205490506000600a8381548110612ba757612ba6613f91565b5b9060005260206000200154905080600a8381548110612bc957612bc8613f91565b5b906000526020600020018190555081600d600083815260200190815260200160002081905550600d600085815260200190815260200160002060009055600a805480612c1857612c1761492b565b5b6001900381819060005260206000200160009055905550505050565b6000612c3f83611131565b905081600e60008573ffffffffffffffffffffffffffffffffffffffff1673ffffffffffffffffffffffffffffffffffffffff16815260200190815260200160002060008381526020019081526020016000208190555080600f600084815260200190815260200160002081905550505050565b6000808273ffffffffffffffffffffffffffffffffffffffff163b119050919050565b600073ffffffffffffffffffffffffffffffffffffffff168273ffffffffffffffffffffffffffffffffffffffff1603612d45576040517f08c379a0000000000000000000000000000000000000000000000000000000008152600401612d3c906149a6565b60405180910390fd5b612d4e8161259c565b15612d8e576040517f08c379a0000000000000000000000000000000000000000000000000000000008152600401612d8590614a12565b60405180910390fd5b612d9c6000838360016125dd565b612da58161259c565b15612de5576040517f08c379a0000000000000000000000000000000000000000000000000000000008152600401612ddc90614a12565b60405180910390fd5b6001600360008473ffffffffffffffffffffffffffffffffffffffff1673ffffffffffffffffffffffffffffffffffffffff16815260200190815260200160002060008282540192505081905550816002600083815260200190815260200160002060006101000a81548173ffffffffffffffffffffffffffffffffffffffff021916908373ffffffffffffffffffffffffffffffffffffffff160217905550808273ffffffffffffffffffffffffffffffffffffffff16600073ffffffffffffffffffffffffffffffffffffffff167fddf252ad1be2c89b69c2b068fc378daa952ba7f163c4a11628f55a4df523b3ef60405160405180910390a4612eef6000838360016126f1565b5050565b600080600090507a184f03e93ff9f4daa797ed6e38ed64bf6a1f0100000000000000008310612f51577a184f03e93ff9f4daa797ed6e38ed64bf6a1f0100000000000000008381612f4757612f466148c8565b5b0492506040810190505b6d04ee2d6d415b85acef81000000008310612f8e576d04ee2d6d415b85acef81000000008381612f8457612f836148c8565b5b0492506020810190505b662386f26fc100008310612fbd57662386f26fc100008381612fb357612fb26148c8565b5b0492506010810190505b6305f5e1008310612fe6576305f5e1008381612fdc57612fdb6148c8565b5b0492506008810190505b612710831061300b576127108381613001576130006148c8565b5b0492506004810190505b6064831061302e5760648381613024576130236148c8565b5b0492506002810190505b600a831061303d576001810190505b80915050919050565b60405180608001604052806000815260200160008152602001600073ffffffffffffffffffffffffffffffffffffffff1681526020016000151581525090565b82805461309290613a64565b90600052602060002090601f0160209004810192826130b457600085556130fb565b82601f106130cd57805160ff19168380011785556130fb565b828001600101855582156130fb579182015b828111156130fa5782518255916020019190600101906130df565b5b509050613108919061310c565b5090565b5b8082111561312557600081600090555060010161310d565b5090565b6000604051905090565b600080fd5b600080fd5b60007fffffffff0000000000000000000000000000000000000000000000000000000082169050919050565b6131728161313d565b811461317d57600080fd5b50565b60008135905061318f81613169565b92915050565b6000602082840312156131ab576131aa613133565b5b60006131b984828501613180565b91505092915050565b60008115159050919050565b6131d7816131c2565b82525050565b60006020820190506131f260008301846131ce565b92915050565b600081519050919050565b600082825260208201905092915050565b60005b83811015613232578082015181840152602081019050613217565b83811115613241576000848401525b50505050565b6000601f19601f8301169050919050565b6000613263826131f8565b61326d8185613203565b935061327d818560208601613214565b61328681613247565b840191505092915050565b600060208201905081810360008301526132ab8184613258565b905092915050565b6000819050919050565b6132c6816132b3565b81146132d157600080fd5b50565b6000813590506132e3816132bd565b92915050565b6000602082840312156132ff576132fe613133565b5b600061330d848285016132d4565b91505092915050565b600073ffffffffffffffffffffffffffffffffffffffff82169050919050565b600061334182613316565b9050919050565b61335181613336565b82525050565b600060208201905061336c6000830184613348565b92915050565b61337b81613336565b811461338657600080fd5b50565b60008135905061339881613372565b92915050565b600080604083850312156133b5576133b4613133565b5b60006133c385828601613389565b92505060206133d4858286016132d4565b9150509250929050565b6133e7816132b3565b82525050565b600060208201905061340260008301846133de565b92915050565b6000806040838503121561341f5761341e613133565b5b600061342d858286016132d4565b925050602061343e858286016132d4565b9150509250929050565b60008060006060848603121561346157613460613133565b5b600061346f86828701613389565b935050602061348086828701613389565b9250506040613491868287016132d4565b9150509250925092565b600081519050919050565b600082825260208201905092915050565b6000819050602082019050919050565b6134d0816132b3565b82525050565b6134df81613336565b82525050565b6134ee816131c2565b82525050565b60808201600082015161350a60008501826134c7565b50602082015161351d60208501826134c7565b50604082015161353060408501826134d6565b50606082015161354360608501826134e5565b50505050565b600061355583836134f4565b60808301905092915050565b6000602082019050919050565b60006135798261349b565b61358381856134a6565b935061358e836134b7565b8060005b838110156135bf5781516135a68882613549565b97506135b183613561565b925050600181019050613592565b5085935050505092915050565b600060208201905081810360008301526135e6818461356e565b905092915050565b600080fd5b600080fd5b7f4e487b7100000000000000000000000000000000000000000000000000000000600052604160045260246000fd5b61363082613247565b810181811067ffffffffffffffff8211171561364f5761364e6135f8565b5b80604052505050565b6000613662613129565b905061366e8282613627565b919050565b600067ffffffffffffffff82111561368e5761368d6135f8565b5b61369782613247565b9050602081019050919050565b82818337600083830152505050565b60006136c66136c184613673565b613658565b9050828152602081018484840111156136e2576136e16135f3565b5b6136ed8482856136a4565b509392505050565b600082601f83011261370a576137096135ee565b5b813561371a8482602086016136b3565b91505092915050565b60006020828403121561373957613738613133565b5b600082013567ffffffffffffffff81111561375757613756613138565b5b613763848285016136f5565b91505092915050565b60808201600082015161378260008501826134c7565b50602082015161379560208501826134c7565b5060408201516137a860408501826134d6565b5060608201516137bb60608501826134e5565b50505050565b60006080820190506137d6600083018461376c565b92915050565b6000602082840312156137f2576137f1613133565b5b600061380084828501613389565b91505092915050565b613812816131c2565b811461381d57600080fd5b50565b60008135905061382f81613809565b92915050565b6000806040838503121561384c5761384b613133565b5b600061385a85828601613389565b925050602061386b85828601613820565b9150509250929050565b600067ffffffffffffffff8211156138905761388f6135f8565b5b61389982613247565b9050602081019050919050565b60006138b96138b484613875565b613658565b9050828152602081018484840111156138d5576138d46135f3565b5b6138e08482856136a4565b509392505050565b600082601f8301126138fd576138fc6135ee565b5b813561390d8482602086016138a6565b91505092915050565b600080600080608085870312156139305761392f613133565b5b600061393e87828801613389565b945050602061394f87828801613389565b9350506040613960878288016132d4565b925050606085013567ffffffffffffffff81111561398157613980613138565b5b61398d878288016138e8565b91505092959194509250565b600080604083850312156139b0576139af613133565b5b600083013567ffffffffffffffff8111156139ce576139cd613138565b5b6139da858286016136f5565b92505060206139eb858286016132d4565b9150509250929050565b60008060408385031215613a0c57613a0b613133565b5b6000613a1a85828601613389565b9250506020613a2b85828601613389565b9150509250929050565b7f4e487b7100000000000000000000000000000000000000000000000000000000600052602260045260246000fd5b60006002820490506001821680613a7c57607f821691505b602082108103613a8f57613a8e613a35565b5b50919050565b7f4552433732313a20617070726f76616c20746f2063757272656e74206f776e6560008201527f7200000000000000000000000000000000000000000000000000000000000000602082015250565b6000613af1602183613203565b9150613afc82613a95565b604082019050919050565b60006020820190508181036000830152613b2081613ae4565b9050919050565b7f4552433732313a20617070726f76652063616c6c6572206973206e6f7420746f60008201527f6b656e206f776e6572206f7220617070726f76656420666f7220616c6c000000602082015250565b6000613b83603d83613203565b9150613b8e82613b27565b604082019050919050565b60006020820190508181036000830152613bb281613b76565b9050919050565b7f596f7520617265206e6f7420746865206f776e6572206f662074686973204e4660008201527f5400000000000000000000000000000000000000000000000000000000000000602082015250565b6000613c15602183613203565b9150613c2082613bb9565b604082019050919050565b60006020820190508181036000830152613c4481613c08565b9050919050565b7f54686973204e465420697320616c7265616479206c6973746564000000000000600082015250565b6000613c81601a83613203565b9150613c8c82613c4b565b602082019050919050565b60006020820190508181036000830152613cb081613c74565b9050919050565b7f5072696365206d75737420626520657175616c20746f206c697374696e67207060008201527f7269636500000000000000000000000000000000000000000000000000000000602082015250565b6000613d13602483613203565b9150613d1e82613cb7565b604082019050919050565b60006020820190508181036000830152613d4281613d06565b9050919050565b7f4552433732313a2063616c6c6572206973206e6f7420746f6b656e206f776e6560008201527f72206f7220617070726f76656400000000000000000000000000000000000000602082015250565b6000613da5602d83613203565b9150613db082613d49565b604082019050919050565b60006020820190508181036000830152613dd481613d98565b9050919050565b7f596f7520616c726561647920746865206f776e6572206f662074686973204e4660008201527f5400000000000000000000000000000000000000000000000000000000000000602082015250565b6000613e37602183613203565b9150613e4282613ddb565b604082019050919050565b60006020820190508181036000830152613e6681613e2a565b9050919050565b7f5072696365206d75737420626520657175616c20746f20746865204e4654207060008201527f7269636500000000000000000000000000000000000000000000000000000000602082015250565b6000613ec9602483613203565b9150613ed482613e6d565b604082019050919050565b60006020820190508181036000830152613ef881613ebc565b9050919050565b7f496e646578206d757374206265206c657373207468616e206f776e657220626160008201527f6c616e6365000000000000000000000000000000000000000000000000000000602082015250565b6000613f5b602583613203565b9150613f6682613eff565b604082019050919050565b60006020820190508181036000830152613f8a81613f4e565b9050919050565b7f4e487b7100000000000000000000000000000000000000000000000000000000600052603260045260246000fd5b7f4e487b7100000000000000000000000000000000000000000000000000000000600052601160045260246000fd5b6000613ffa826132b3565b91507fffffffffffffffffffffffffffffffffffffffffffffffffffffffffffffffff820361402c5761402b613fc0565b5b600182019050919050565b600081905092915050565b600061404d826131f8565b6140578185614037565b9350614067818560208601613214565b80840191505092915050565b600061407f8284614042565b915081905092915050565b7f496e646578206d757374206265206c657373207468616e20746f74616c20737560008201527f70706c7900000000000000000000000000000000000000000000000000000000602082015250565b60006140e6602483613203565b91506140f18261408a565b604082019050919050565b60006020820190508181036000830152614115816140d9565b9050919050565b7f4552433732313a20696e76616c696420746f6b656e2049440000000000000000600082015250565b6000614152601883613203565b915061415d8261411c565b602082019050919050565b6000602082019050818103600083015261418181614145565b9050919050565b7f4552433732313a2061646472657373207a65726f206973206e6f74206120766160008201527f6c6964206f776e65720000000000000000000000000000000000000000000000602082015250565b60006141e4602983613203565b91506141ef82614188565b604082019050919050565b60006020820190508181036000830152614213816141d7565b9050919050565b7f5072696365206d7573742062652067726561746572207468616e203000000000600082015250565b6000614250601c83613203565b915061425b8261421a565b602082019050919050565b6000602082019050818103600083015261427f81614243565b9050919050565b7f5468697320746f6b656e2055524920616c726561647920657869737473000000600082015250565b60006142bc601d83613203565b91506142c782614286565b602082019050919050565b600060208201905081810360008301526142eb816142af565b9050919050565b7f54686973204e4654206973206e6f74206c697374656400000000000000000000600082015250565b6000614328601683613203565b9150614333826142f2565b602082019050919050565b600060208201905081810360008301526143578161431b565b9050919050565b600061436a8285614042565b91506143768284614042565b91508190509392505050565b7f4f776e61626c653a206e6577206f776e657220697320746865207a65726f206160008201527f6464726573730000000000000000000000000000000000000000000000000000602082015250565b60006143de602683613203565b91506143e982614382565b604082019050919050565b6000602082019050818103600083015261440d816143d1565b9050919050565b7f4552433732313a207472616e736665722066726f6d20696e636f72726563742060008201527f6f776e6572000000000000000000000000000000000000000000000000000000602082015250565b6000614470602583613203565b915061447b82614414565b604082019050919050565b6000602082019050818103600083015261449f81614463565b9050919050565b7f4552433732313a207472616e7366657220746f20746865207a65726f2061646460008201527f7265737300000000000000000000000000000000000000000000000000000000602082015250565b6000614502602483613203565b915061450d826144a6565b604082019050919050565b60006020820190508181036000830152614531816144f5565b9050919050565b7f436f756e7465723a2064656372656d656e74206f766572666c6f770000000000600082015250565b600061456e601b83613203565b915061457982614538565b602082019050919050565b6000602082019050818103600083015261459d81614561565b9050919050565b7f4f776e61626c653a2063616c6c6572206973206e6f7420746865206f776e6572600082015250565b60006145da602083613203565b91506145e5826145a4565b602082019050919050565b60006020820190508181036000830152614609816145cd565b9050919050565b7f4552433732313a20617070726f766520746f2063616c6c657200000000000000600082015250565b6000614646601983613203565b915061465182614610565b602082019050919050565b6000602082019050818103600083015261467581614639565b9050919050565b7f4552433732313a207472616e7366657220746f206e6f6e20455243373231526560008201527f63656976657220696d706c656d656e7465720000000000000000000000000000602082015250565b60006146d8603283613203565b91506146e38261467c565b604082019050919050565b60006020820190508181036000830152614707816146cb565b9050919050565b7f45524337323155524953746f726167653a2055524920736574206f66206e6f6e60008201527f6578697374656e7420746f6b656e000000000000000000000000000000000000602082015250565b600061476a602e83613203565b91506147758261470e565b604082019050919050565b600060208201905081810360008301526147998161475d565b9050919050565b60006080820190506147b560008301876133de565b6147c260208301866133de565b6147cf6040830185613348565b6147dc60608301846131ce565b95945050505050565b600081519050919050565b600082825260208201905092915050565b600061480c826147e5565b61481681856147f0565b9350614826818560208601613214565b61482f81613247565b840191505092915050565b600060808201905061484f6000830187613348565b61485c6020830186613348565b61486960408301856133de565b818103606083015261487b8184614801565b905095945050505050565b60008151905061489581613169565b92915050565b6000602082840312156148b1576148b0613133565b5b60006148bf84828501614886565b91505092915050565b7f4e487b7100000000000000000000000000000000000000000000000000000000600052601260045260246000fd5b6000614902826132b3565b915061490d836132b3565b9250828210156149205761491f613fc0565b5b828203905092915050565b7f4e487b7100000000000000000000000000000000000000000000000000000000600052603160045260246000fd5b7f4552433732313a206d696e7420746f20746865207a65726f2061646472657373600082015250565b6000614990602083613203565b915061499b8261495a565b602082019050919050565b600060208201905081810360008301526149bf81614983565b9050919050565b7f4552433732313a20746f6b656e20616c7265616479206d696e74656400000000600082015250565b60006149fc601c83613203565b9150614a07826149c6565b602082019050919050565b60006020820190508181036000830152614a2b816149ef565b905091905056fea2646970667358221220b04dded40f31546fc375df2174b7e5590d1bca8070e66095e90053636943fdff64736f6c634300080d0033",
  "immutableReferences": {},
  "source": "// SPDX-License-Identifier: MIT\n// Tells the Solidity compiler to compile only from v0.8.13 to v0.9.0\npragma solidity ^0.8.13;\nimport \"@openzeppelin/contracts/token/ERC721/extensions/ERC721URIStorage.sol\";\nimport \"@openzeppelin/contracts/utils/Counters.sol\";\nimport \"@openzeppelin/contracts/access/Ownable.sol\";\n\ncontract NftMarket is ERC721URIStorage, Ownable {\n    using Counters for Counters.Counter;\n    struct NftItem {\n        uint tokenId;\n        uint price;\n        address creator;\n        bool isListed;\n    }\n    Counters.Counter private _listedItems;\n    Counters.Counter private _tokenIds;\n    // tokenIds\n    uint256[] private _allNfts;\n    // tokenURI\n    mapping(string => bool) private _usedTokenURIs;\n    // NFT,tokenIdNFT\n    mapping(uint => NftItem) private _nftItems;\n    // tokenIdkey,_allNfts.lengthvalue\n    mapping(uint => uint) private _nftItemIndex;\n    mapping(address => mapping(uint => uint)) private _ownedTokens;\n    mapping(uint => uint) private _idToOwnerIndex;\n    // \n    uint public listingPrice = 0.025 ether;\n    \n    event NftItemCreated(uint tokenId, uint price, address creator, bool isListed);\n    constructor() ERC721(\"NftMarket\", \"NFTM\") {}\n\n    // \n    function setListingPrice(uint price) external onlyOwner {\n        require(price > 0, \"Price must be greater than 0\");\n        listingPrice = price;\n    }\n    // NFT\n    // function burnTokenId(uint tokenId) public {\n    //     _burn(tokenId);\n    // }\n    // NFT\n    function mintToken(string memory tokenURI, uint price) public payable returns (uint) {\n        require(!tokenURIExists(tokenURI), \"This token URI already exists\");\n        // \n        require(msg.value == listingPrice, \"Price must be equal to listing price\");\n        _tokenIds.increment();\n        _listedItems.increment();\n\n        uint newTokenId = _tokenIds.current();\n        _safeMint(msg.sender, newTokenId);\n        _setTokenURI(newTokenId, tokenURI);\n        _createNftItem(newTokenId, price);\n        _usedTokenURIs[tokenURI] = true;\n        return newTokenId;\n    }\n    // nft\n    function _createNftItem(uint tokenId, uint price) private {\n        require(price > 0, \"Price must be greater than 0\");\n        _nftItems[tokenId] = NftItem(tokenId, price, msg.sender, true);\n        emit NftItemCreated(tokenId, price, msg.sender, true);\n    }\n    // NFT\n    function getOwnedNfts() public view returns (NftItem[] memory) {\n        uint ownedNftsCount = balanceOf(msg.sender);\n        NftItem[] memory items = new NftItem[](ownedNftsCount);\n\n        for (uint i = 0; i < ownedNftsCount; i++) {\n            uint tokenId = tokenOfOwnerByIndex(msg.sender, i);\n            NftItem storage item = _nftItems[tokenId];\n            items[i] = item;\n        }\n\n        return items;\n    }\n    // nft\n    function totalSupply() public view returns (uint) {\n        return _allNfts.length;\n    }\n    // indextoken\n    function tokenByIndex(uint index) public view returns (uint) {\n        require(index < totalSupply(), \"Index must be less than total supply\");\n        return _allNfts[index];\n    }\n    // indextoken\n    function tokenOfOwnerByIndex(address owner, uint index) public view returns (uint) {\n        require(index < balanceOf(owner), \"Index must be less than owner balance\");\n        return _ownedTokens[owner][index];\n    }\n    // NFT\n    function getAllNftsOnSale() public view returns (NftItem[] memory) {\n        uint allItemsCounts = totalSupply();\n        uint currentIndex = 0;\n        NftItem[] memory items = new NftItem[](_listedItems.current());\n\n        for (uint i = 0; i < allItemsCounts; i++) {\n            uint tokenId = tokenByIndex(i);\n            NftItem storage item = _nftItems[tokenId];\n\n            if (item.isListed) {\n                items[currentIndex] = item;\n                currentIndex++;\n            }\n        }\n\n        return items;\n    }\n    \n    // NFT\n    function buyNft(uint tokenId) public payable {\n        // NFT\n        uint price = _nftItems[tokenId].price;\n        // NFT\n        address owner = ERC721.ownerOf(tokenId);\n        require(msg.sender != owner, \"You already the owner of this NFT\");\n        require(msg.value == price, \"Price must be equal to the NFT price\");\n        _nftItems[tokenId].isListed = false;\n        // nft\n        _listedItems.decrement();\n        // NFT\n        _transfer(owner, msg.sender, tokenId);\n        payable(owner).transfer(msg.value);\n    }\n\n    // Nft\n    function placeNftOnSale(uint tokenId, uint price) public payable {\n        require(msg.sender == ERC721.ownerOf(tokenId), \"You are not the owner of this NFT\");\n        require(_nftItems[tokenId].isListed == false, \"This NFT is already listed\");\n        require(msg.value == listingPrice, \"Price must be equal to listing price\");\n        _nftItems[tokenId].isListed = true;\n        _nftItems[tokenId].price = price;\n        _listedItems.increment();\n    }\n    // NFT\n    function cancelNftOnSale(uint tokenId) public {\n        require(msg.sender == ERC721.ownerOf(tokenId), \"You are not the owner of this NFT\");\n        require(_nftItems[tokenId].isListed == true, \"This NFT is not listed\");\n        _nftItems[tokenId].isListed = false;\n        _listedItems.decrement();\n    }\n\n    // NFT\n    function getNftItem(uint tokenId) public view returns (NftItem memory) {\n        return _nftItems[tokenId];\n    }\n    // nft\n    function listedItemsCount() public view returns (uint) {\n        return _listedItems.current();\n    }\n    // tokenURI\n    function tokenURIExists(string memory tokenURI) public view returns (bool) {\n        return _usedTokenURIs[tokenURI]==true;\n    }\n\n    function _beforeTokenTransfer(address from, address to, uint tokenId,uint256 batchSize) internal virtual override{\n        super._beforeTokenTransfer(from, to, tokenId, batchSize);\n        if (from == address(0)) {\n            _addTokenToAllTokensEnumeration(tokenId);\n        }else if (from != to) {\n            _removeTokenFromOwnerEnumeration(from, tokenId);\n        }\n        if(to == address(0)){\n            _removeTokenFromAllTokensEnumeration(tokenId);\n        } else if (to != from) {\n            _addTokenToOwnerEnumeration(to, tokenId);\n        }\n    }\n\n    function _addTokenToAllTokensEnumeration(uint tokenId) private {\n        _nftItemIndex[tokenId] = _allNfts.length;\n        _allNfts.push(tokenId);\n    }\n    // tokenId\n    function _addTokenToOwnerEnumeration(address to, uint tokenId) private {\n        // toNFT\n        uint length = balanceOf(to);\n        // tokenIdtoNFT\n        _ownedTokens[to][length] = tokenId;\n        // tokenIdtoNFTindex\n        _idToOwnerIndex[tokenId] = length;\n    }\n    // tokenId\n    function _removeTokenFromOwnerEnumeration(address from, uint tokenId) private {\n        // fromNFT\n        uint lastTokenIndex = balanceOf(from) - 1;\n        // tokenIdfromNFTindex\n        uint tokenIndex = _idToOwnerIndex[tokenId];\n        /**\n         * toukeIdfromNFTNFT\n         * fromNFTNFTtokenId\n         */\n        if(tokenIndex != lastTokenIndex){\n            // fromNFTNFTtokenId\n            uint lastTokenId = _ownedTokens[from][lastTokenIndex];\n            // fromNFTNFTtokenId\n            _ownedTokens[from][tokenIndex] = lastTokenId;\n            // TokenIdindex\n            _idToOwnerIndex[lastTokenId] = tokenIndex;\n        }\n        // tokenIdfromNFTindex\n        delete _idToOwnerIndex[tokenId];\n        // fromNFTNFT\n        delete _ownedTokens[from][lastTokenIndex];\n    }\n    // NFT\n    function _removeTokenFromAllTokensEnumeration(uint tokenId) private {\n        uint lastTokenIndex = _allNfts.length - 1;\n        uint tokenIndex = _nftItemIndex[tokenId];\n        uint lastTokenId = _allNfts[lastTokenIndex];\n\n        _allNfts[tokenIndex] = lastTokenId;\n        _nftItemIndex[lastTokenId] = tokenIndex;\n\n        delete _nftItemIndex[tokenId];\n        _allNfts.pop();\n    }\n}",
  "sourcePath": "D:\\Dapp\\boundless-dapp\\boundless-be\\contracts\\NftMarket.sol",
  "compiler": {
    "name": "solc",
    "version": "0.8.13+commit.abaa5c0e.Emscripten.clang"
  },
  "schemaVersion": "3.4.14",
  "updatedAt": "2023-08-22T12:51:19.859Z",
  "networkType": "ethereum",
  "devdoc": {
    "kind": "dev",
    "methods": {
      "approve(address,uint256)": {
        "details": "See {IERC721-approve}."
      },
      "balanceOf(address)": {
        "details": "See {IERC721-balanceOf}."
      },
      "getApproved(uint256)": {
        "details": "See {IERC721-getApproved}."
      },
      "isApprovedForAll(address,address)": {
        "details": "See {IERC721-isApprovedForAll}."
      },
      "name()": {
        "details": "See {IERC721Metadata-name}."
      },
      "owner()": {
        "details": "Returns the address of the current owner."
      },
      "ownerOf(uint256)": {
        "details": "See {IERC721-ownerOf}."
      },
      "renounceOwnership()": {
        "details": "Leaves the contract without owner. It will not be possible to call `onlyOwner` functions. Can only be called by the current owner. NOTE: Renouncing ownership will leave the contract without an owner, thereby disabling any functionality that is only available to the owner."
      },
      "safeTransferFrom(address,address,uint256)": {
        "details": "See {IERC721-safeTransferFrom}."
      },
      "safeTransferFrom(address,address,uint256,bytes)": {
        "details": "See {IERC721-safeTransferFrom}."
      },
      "setApprovalForAll(address,bool)": {
        "details": "See {IERC721-setApprovalForAll}."
      },
      "supportsInterface(bytes4)": {
        "details": "See {IERC165-supportsInterface}"
      },
      "symbol()": {
        "details": "See {IERC721Metadata-symbol}."
      },
      "tokenURI(uint256)": {
        "details": "See {IERC721Metadata-tokenURI}."
      },
      "transferFrom(address,address,uint256)": {
        "details": "See {IERC721-transferFrom}."
      },
      "transferOwnership(address)": {
        "details": "Transfers ownership of the contract to a new account (`newOwner`). Can only be called by the current owner."
      }
    },
    "version": 1
  },
  "userdoc": {
    "kind": "user",
    "methods": {},
    "version": 1
  }
}