{
  "contractName": "NftMarket",
  "abi": [
    {
      "inputs": [],
      "stateMutability": "nonpayable",
      "type": "constructor"
    },
    {
      "anonymous": false,
      "inputs": [
        {
          "indexed": true,
          "internalType": "address",
          "name": "owner",
          "type": "address"
        },
        {
          "indexed": true,
          "internalType": "address",
          "name": "approved",
          "type": "address"
        },
        {
          "indexed": true,
          "internalType": "uint256",
          "name": "tokenId",
          "type": "uint256"
        }
      ],
      "name": "Approval",
      "type": "event"
    },
    {
      "anonymous": false,
      "inputs": [
        {
          "indexed": true,
          "internalType": "address",
          "name": "owner",
          "type": "address"
        },
        {
          "indexed": true,
          "internalType": "address",
          "name": "operator",
          "type": "address"
        },
        {
          "indexed": false,
          "internalType": "bool",
          "name": "approved",
          "type": "bool"
        }
      ],
      "name": "ApprovalForAll",
      "type": "event"
    },
    {
      "anonymous": false,
      "inputs": [
        {
          "indexed": false,
          "internalType": "uint256",
          "name": "_fromTokenId",
          "type": "uint256"
        },
        {
          "indexed": false,
          "internalType": "uint256",
          "name": "_toTokenId",
          "type": "uint256"
        }
      ],
      "name": "BatchMetadataUpdate",
      "type": "event"
    },
    {
      "anonymous": false,
      "inputs": [
        {
          "indexed": false,
          "internalType": "uint256",
          "name": "_tokenId",
          "type": "uint256"
        }
      ],
      "name": "MetadataUpdate",
      "type": "event"
    },
    {
      "anonymous": false,
      "inputs": [
        {
          "indexed": false,
          "internalType": "uint256",
          "name": "tokenId",
          "type": "uint256"
        },
        {
          "indexed": false,
          "internalType": "uint256",
          "name": "price",
          "type": "uint256"
        },
        {
          "indexed": false,
          "internalType": "address",
          "name": "creator",
          "type": "address"
        },
        {
          "indexed": false,
          "internalType": "bool",
          "name": "isListed",
          "type": "bool"
        }
      ],
      "name": "NftItemCreated",
      "type": "event"
    },
    {
      "anonymous": false,
      "inputs": [
        {
          "indexed": true,
          "internalType": "address",
          "name": "previousOwner",
          "type": "address"
        },
        {
          "indexed": true,
          "internalType": "address",
          "name": "newOwner",
          "type": "address"
        }
      ],
      "name": "OwnershipTransferred",
      "type": "event"
    },
    {
      "anonymous": false,
      "inputs": [
        {
          "indexed": true,
          "internalType": "address",
          "name": "from",
          "type": "address"
        },
        {
          "indexed": true,
          "internalType": "address",
          "name": "to",
          "type": "address"
        },
        {
          "indexed": true,
          "internalType": "uint256",
          "name": "tokenId",
          "type": "uint256"
        }
      ],
      "name": "Transfer",
      "type": "event"
    },
    {
      "inputs": [
        {
          "internalType": "address",
          "name": "to",
          "type": "address"
        },
        {
          "internalType": "uint256",
          "name": "tokenId",
          "type": "uint256"
        }
      ],
      "name": "approve",
      "outputs": [],
      "stateMutability": "nonpayable",
      "type": "function"
    },
    {
      "inputs": [
        {
          "internalType": "address",
          "name": "owner",
          "type": "address"
        }
      ],
      "name": "balanceOf",
      "outputs": [
        {
          "internalType": "uint256",
          "name": "",
          "type": "uint256"
        }
      ],
      "stateMutability": "view",
      "type": "function",
      "constant": true
    },
    {
      "inputs": [
        {
          "internalType": "uint256",
          "name": "tokenId",
          "type": "uint256"
        }
      ],
      "name": "getApproved",
      "outputs": [
        {
          "internalType": "address",
          "name": "",
          "type": "address"
        }
      ],
      "stateMutability": "view",
      "type": "function",
      "constant": true
    },
    {
      "inputs": [
        {
          "internalType": "address",
          "name": "owner",
          "type": "address"
        },
        {
          "internalType": "address",
          "name": "operator",
          "type": "address"
        }
      ],
      "name": "isApprovedForAll",
      "outputs": [
        {
          "internalType": "bool",
          "name": "",
          "type": "bool"
        }
      ],
      "stateMutability": "view",
      "type": "function",
      "constant": true
    },
    {
      "inputs": [],
      "name": "listingPrice",
      "outputs": [
        {
          "internalType": "uint256",
          "name": "",
          "type": "uint256"
        }
      ],
      "stateMutability": "view",
      "type": "function",
      "constant": true
    },
    {
      "inputs": [],
      "name": "name",
      "outputs": [
        {
          "internalType": "string",
          "name": "",
          "type": "string"
        }
      ],
      "stateMutability": "view",
      "type": "function",
      "constant": true
    },
    {
      "inputs": [],
      "name": "owner",
      "outputs": [
        {
          "internalType": "address",
          "name": "",
          "type": "address"
        }
      ],
      "stateMutability": "view",
      "type": "function",
      "constant": true
    },
    {
      "inputs": [
        {
          "internalType": "uint256",
          "name": "tokenId",
          "type": "uint256"
        }
      ],
      "name": "ownerOf",
      "outputs": [
        {
          "internalType": "address",
          "name": "",
          "type": "address"
        }
      ],
      "stateMutability": "view",
      "type": "function",
      "constant": true
    },
    {
      "inputs": [],
      "name": "renounceOwnership",
      "outputs": [],
      "stateMutability": "nonpayable",
      "type": "function"
    },
    {
      "inputs": [
        {
          "internalType": "address",
          "name": "from",
          "type": "address"
        },
        {
          "internalType": "address",
          "name": "to",
          "type": "address"
        },
        {
          "internalType": "uint256",
          "name": "tokenId",
          "type": "uint256"
        }
      ],
      "name": "safeTransferFrom",
      "outputs": [],
      "stateMutability": "nonpayable",
      "type": "function"
    },
    {
      "inputs": [
        {
          "internalType": "address",
          "name": "from",
          "type": "address"
        },
        {
          "internalType": "address",
          "name": "to",
          "type": "address"
        },
        {
          "internalType": "uint256",
          "name": "tokenId",
          "type": "uint256"
        },
        {
          "internalType": "bytes",
          "name": "data",
          "type": "bytes"
        }
      ],
      "name": "safeTransferFrom",
      "outputs": [],
      "stateMutability": "nonpayable",
      "type": "function"
    },
    {
      "inputs": [
        {
          "internalType": "address",
          "name": "operator",
          "type": "address"
        },
        {
          "internalType": "bool",
          "name": "approved",
          "type": "bool"
        }
      ],
      "name": "setApprovalForAll",
      "outputs": [],
      "stateMutability": "nonpayable",
      "type": "function"
    },
    {
      "inputs": [
        {
          "internalType": "bytes4",
          "name": "interfaceId",
          "type": "bytes4"
        }
      ],
      "name": "supportsInterface",
      "outputs": [
        {
          "internalType": "bool",
          "name": "",
          "type": "bool"
        }
      ],
      "stateMutability": "view",
      "type": "function",
      "constant": true
    },
    {
      "inputs": [],
      "name": "symbol",
      "outputs": [
        {
          "internalType": "string",
          "name": "",
          "type": "string"
        }
      ],
      "stateMutability": "view",
      "type": "function",
      "constant": true
    },
    {
      "inputs": [
        {
          "internalType": "uint256",
          "name": "tokenId",
          "type": "uint256"
        }
      ],
      "name": "tokenURI",
      "outputs": [
        {
          "internalType": "string",
          "name": "",
          "type": "string"
        }
      ],
      "stateMutability": "view",
      "type": "function",
      "constant": true
    },
    {
      "inputs": [
        {
          "internalType": "address",
          "name": "from",
          "type": "address"
        },
        {
          "internalType": "address",
          "name": "to",
          "type": "address"
        },
        {
          "internalType": "uint256",
          "name": "tokenId",
          "type": "uint256"
        }
      ],
      "name": "transferFrom",
      "outputs": [],
      "stateMutability": "nonpayable",
      "type": "function"
    },
    {
      "inputs": [
        {
          "internalType": "address",
          "name": "newOwner",
          "type": "address"
        }
      ],
      "name": "transferOwnership",
      "outputs": [],
      "stateMutability": "nonpayable",
      "type": "function"
    },
    {
      "inputs": [
        {
          "internalType": "uint256",
          "name": "price",
          "type": "uint256"
        }
      ],
      "name": "setListingPrice",
      "outputs": [],
      "stateMutability": "nonpayable",
      "type": "function"
    },
    {
      "inputs": [
        {
          "internalType": "uint256",
          "name": "tokenId",
          "type": "uint256"
        }
      ],
      "name": "burnTokenId",
      "outputs": [],
      "stateMutability": "nonpayable",
      "type": "function"
    },
    {
      "inputs": [
        {
          "internalType": "string",
          "name": "tokenURI",
          "type": "string"
        },
        {
          "internalType": "uint256",
          "name": "price",
          "type": "uint256"
        }
      ],
      "name": "mintToken",
      "outputs": [
        {
          "internalType": "uint256",
          "name": "",
          "type": "uint256"
        }
      ],
      "stateMutability": "payable",
      "type": "function",
      "payable": true
    },
    {
      "inputs": [],
      "name": "getOwnedNfts",
      "outputs": [
        {
          "components": [
            {
              "internalType": "uint256",
              "name": "tokenId",
              "type": "uint256"
            },
            {
              "internalType": "uint256",
              "name": "price",
              "type": "uint256"
            },
            {
              "internalType": "address",
              "name": "creator",
              "type": "address"
            },
            {
              "internalType": "bool",
              "name": "isListed",
              "type": "bool"
            }
          ],
          "internalType": "struct NftMarket.NftItem[]",
          "name": "",
          "type": "tuple[]"
        }
      ],
      "stateMutability": "view",
      "type": "function",
      "constant": true
    },
    {
      "inputs": [],
      "name": "totalSupply",
      "outputs": [
        {
          "internalType": "uint256",
          "name": "",
          "type": "uint256"
        }
      ],
      "stateMutability": "view",
      "type": "function",
      "constant": true
    },
    {
      "inputs": [
        {
          "internalType": "uint256",
          "name": "index",
          "type": "uint256"
        }
      ],
      "name": "tokenByIndex",
      "outputs": [
        {
          "internalType": "uint256",
          "name": "",
          "type": "uint256"
        }
      ],
      "stateMutability": "view",
      "type": "function",
      "constant": true
    },
    {
      "inputs": [
        {
          "internalType": "address",
          "name": "owner",
          "type": "address"
        },
        {
          "internalType": "uint256",
          "name": "index",
          "type": "uint256"
        }
      ],
      "name": "tokenOfOwnerByIndex",
      "outputs": [
        {
          "internalType": "uint256",
          "name": "",
          "type": "uint256"
        }
      ],
      "stateMutability": "view",
      "type": "function",
      "constant": true
    },
    {
      "inputs": [],
      "name": "getAllNftsOnSale",
      "outputs": [
        {
          "components": [
            {
              "internalType": "uint256",
              "name": "tokenId",
              "type": "uint256"
            },
            {
              "internalType": "uint256",
              "name": "price",
              "type": "uint256"
            },
            {
              "internalType": "address",
              "name": "creator",
              "type": "address"
            },
            {
              "internalType": "bool",
              "name": "isListed",
              "type": "bool"
            }
          ],
          "internalType": "struct NftMarket.NftItem[]",
          "name": "",
          "type": "tuple[]"
        }
      ],
      "stateMutability": "view",
      "type": "function",
      "constant": true
    },
    {
      "inputs": [
        {
          "internalType": "uint256",
          "name": "tokenId",
          "type": "uint256"
        }
      ],
      "name": "buyNft",
      "outputs": [],
      "stateMutability": "payable",
      "type": "function",
      "payable": true
    },
    {
      "inputs": [
        {
          "internalType": "uint256",
          "name": "tokenId",
          "type": "uint256"
        },
        {
          "internalType": "uint256",
          "name": "price",
          "type": "uint256"
        }
      ],
      "name": "placeNftOnSale",
      "outputs": [],
      "stateMutability": "payable",
      "type": "function",
      "payable": true
    },
    {
      "inputs": [
        {
          "internalType": "uint256",
          "name": "tokenId",
          "type": "uint256"
        }
      ],
      "name": "getNftItem",
      "outputs": [
        {
          "components": [
            {
              "internalType": "uint256",
              "name": "tokenId",
              "type": "uint256"
            },
            {
              "internalType": "uint256",
              "name": "price",
              "type": "uint256"
            },
            {
              "internalType": "address",
              "name": "creator",
              "type": "address"
            },
            {
              "internalType": "bool",
              "name": "isListed",
              "type": "bool"
            }
          ],
          "internalType": "struct NftMarket.NftItem",
          "name": "",
          "type": "tuple"
        }
      ],
      "stateMutability": "view",
      "type": "function",
      "constant": true
    },
    {
      "inputs": [],
      "name": "listedItemsCount",
      "outputs": [
        {
          "internalType": "uint256",
          "name": "",
          "type": "uint256"
        }
      ],
      "stateMutability": "view",
      "type": "function",
      "constant": true
    },
    {
      "inputs": [
        {
          "internalType": "string",
          "name": "tokenURI",
          "type": "string"
        }
      ],
      "name": "tokenURIExists",
      "outputs": [
        {
          "internalType": "bool",
          "name": "",
          "type": "bool"
        }
      ],
      "stateMutability": "view",
      "type": "function",
      "constant": true
    }
  ],
  "bytecode": "0x60806040526658d15e176280006010553480156200001c57600080fd5b506040518060400160405280600981526020017f4e66744d61726b657400000000000000000000000000000000000000000000008152506040518060400160405280600481526020017f4e46544d000000000000000000000000000000000000000000000000000000008152508160009080519060200190620000a1929190620001b1565b508060019080519060200190620000ba929190620001b1565b505050620000dd620000d1620000e360201b60201c565b620000eb60201b60201c565b620002c5565b600033905090565b6000600760009054906101000a900473ffffffffffffffffffffffffffffffffffffffff16905081600760006101000a81548173ffffffffffffffffffffffffffffffffffffffff021916908373ffffffffffffffffffffffffffffffffffffffff1602179055508173ffffffffffffffffffffffffffffffffffffffff168173ffffffffffffffffffffffffffffffffffffffff167f8be0079c531659141344cd1fd0a4f28419497f9722a3daafe3b4186f6b6457e060405160405180910390a35050565b828054620001bf9062000290565b90600052602060002090601f016020900481019282620001e357600085556200022f565b82601f10620001fe57805160ff19168380011785556200022f565b828001600101855582156200022f579182015b828111156200022e57825182559160200191906001019062000211565b5b5090506200023e919062000242565b5090565b5b808211156200025d57600081600090555060010162000243565b5090565b7f4e487b7100000000000000000000000000000000000000000000000000000000600052602260045260246000fd5b60006002820490506001821680620002a957607f821691505b602082108103620002bf57620002be62000261565b5b50919050565b614acd80620002d56000396000f3fe6080604052600436106101cd5760003560e01c806370a08231116100f7578063b88d4fde11610095578063c87b56dd11610064578063c87b56dd14610685578063ccb4918d146106c2578063e985e9c5146106ed578063f2fde38b1461072a576101cd565b8063b88d4fde146105d8578063c046372c14610601578063c32d88ff14610631578063c78f19f91461065a576101cd565b80637c726b69116100d15780637c726b69146105305780638da5cb5b1461055957806395d89b4114610584578063a22cb465146105af576101cd565b806370a08231146104b157806370cbcb43146104ee578063715018a614610519576101cd565b8063243adbdd1161016f57806343d32ae71161013e57806343d32ae7146103bd5780634f6ccce7146103fa5780636352211e146104375780636f1a0af514610474576101cd565b8063243adbdd146103105780632f745c591461032c57806336b536be1461036957806342842e0e14610394576101cd565b8063095ea7b3116101ab578063095ea7b31461027757806318160ddd146102a057806321f422e5146102cb57806323b872dd146102e7576101cd565b806301ffc9a7146101d257806306fdde031461020f578063081812fc1461023a575b600080fd5b3480156101de57600080fd5b506101f960048036038101906101f49190613266565b610753565b60405161020691906132ae565b60405180910390f35b34801561021b57600080fd5b506102246107b4565b6040516102319190613362565b60405180910390f35b34801561024657600080fd5b50610261600480360381019061025c91906133ba565b610846565b60405161026e9190613428565b60405180910390f35b34801561028357600080fd5b5061029e6004803603810190610299919061346f565b61088c565b005b3480156102ac57600080fd5b506102b56109a3565b6040516102c291906134be565b60405180910390f35b6102e560048036038101906102e091906134d9565b6109b0565b005b3480156102f357600080fd5b5061030e60048036038101906103099190613519565b610b2c565b005b61032a600480360381019061032591906133ba565b610b8c565b005b34801561033857600080fd5b50610353600480360381019061034e919061346f565b610cf4565b60405161036091906134be565b60405180910390f35b34801561037557600080fd5b5061037e610d99565b60405161038b919061369d565b60405180910390f35b3480156103a057600080fd5b506103bb60048036038101906103b69190613519565b610f2c565b005b3480156103c957600080fd5b506103e460048036038101906103df91906137f4565b610f4c565b6040516103f191906132ae565b60405180910390f35b34801561040657600080fd5b50610421600480360381019061041c91906133ba565b610f88565b60405161042e91906134be565b60405180910390f35b34801561044357600080fd5b5061045e600480360381019061045991906133ba565b610ff9565b60405161046b9190613428565b60405180910390f35b34801561048057600080fd5b5061049b600480360381019061049691906133ba565b61107f565b6040516104a89190613892565b60405180910390f35b3480156104bd57600080fd5b506104d860048036038101906104d391906138ad565b611131565b6040516104e591906134be565b60405180910390f35b3480156104fa57600080fd5b506105036111e8565b604051610510919061369d565b60405180910390f35b34801561052557600080fd5b5061052e61134c565b005b34801561053c57600080fd5b50610557600480360381019061055291906133ba565b611360565b005b34801561056557600080fd5b5061056e6113b5565b60405161057b9190613428565b60405180910390f35b34801561059057600080fd5b506105996113df565b6040516105a69190613362565b60405180910390f35b3480156105bb57600080fd5b506105d660048036038101906105d19190613906565b611471565b005b3480156105e457600080fd5b506105ff60048036038101906105fa91906139e7565b611487565b005b61061b60048036038101906106169190613a6a565b6114e9565b60405161062891906134be565b60405180910390f35b34801561063d57600080fd5b50610658600480360381019061065391906133ba565b6115f9565b005b34801561066657600080fd5b5061066f611605565b60405161067c91906134be565b60405180910390f35b34801561069157600080fd5b506106ac60048036038101906106a791906133ba565b61160b565b6040516106b99190613362565b60405180910390f35b3480156106ce57600080fd5b506106d761171d565b6040516106e491906134be565b60405180910390f35b3480156106f957600080fd5b50610714600480360381019061070f9190613ac6565b61172e565b60405161072191906132ae565b60405180910390f35b34801561073657600080fd5b50610751600480360381019061074c91906138ad565b6117c2565b005b6000634906490660e01b7bffffffffffffffffffffffffffffffffffffffffffffffffffffffff1916827bffffffffffffffffffffffffffffffffffffffffffffffffffffffff191614806107ad57506107ac82611845565b5b9050919050565b6060600080546107c390613b35565b80601f01602080910402602001604051908101604052809291908181526020018280546107ef90613b35565b801561083c5780601f106108115761010080835404028352916020019161083c565b820191906000526020600020905b81548152906001019060200180831161081f57829003601f168201915b5050505050905090565b600061085182611927565b6004600083815260200190815260200160002060009054906101000a900473ffffffffffffffffffffffffffffffffffffffff169050919050565b600061089782610ff9565b90508073ffffffffffffffffffffffffffffffffffffffff168373ffffffffffffffffffffffffffffffffffffffff1603610907576040517f08c379a00000000000000000000000000000000000000000000000000000000081526004016108fe90613bd8565b60405180910390fd5b8073ffffffffffffffffffffffffffffffffffffffff16610926611972565b73ffffffffffffffffffffffffffffffffffffffff16148061095557506109548161094f611972565b61172e565b5b610994576040517f08c379a000000000000000000000000000000000000000000000000000000000815260040161098b90613c6a565b60405180910390fd5b61099e838361197a565b505050565b6000600a80549050905090565b6109b982610ff9565b73ffffffffffffffffffffffffffffffffffffffff163373ffffffffffffffffffffffffffffffffffffffff1614610a26576040517f08c379a0000000000000000000000000000000000000000000000000000000008152600401610a1d90613cfc565b60405180910390fd5b60001515600c600084815260200190815260200160002060020160149054906101000a900460ff16151514610a90576040517f08c379a0000000000000000000000000000000000000000000000000000000008152600401610a8790613d68565b60405180910390fd5b6010543414610ad4576040517f08c379a0000000000000000000000000000000000000000000000000000000008152600401610acb90613dfa565b60405180910390fd5b6001600c600084815260200190815260200160002060020160146101000a81548160ff02191690831515021790555080600c600084815260200190815260200160002060010181905550610b286008611a33565b5050565b610b3d610b37611972565b82611a49565b610b7c576040517f08c379a0000000000000000000000000000000000000000000000000000000008152600401610b7390613e8c565b60405180910390fd5b610b87838383611ade565b505050565b6000600c60008381526020019081526020016000206001015490506000610bb283610ff9565b90508073ffffffffffffffffffffffffffffffffffffffff163373ffffffffffffffffffffffffffffffffffffffff1603610c22576040517f08c379a0000000000000000000000000000000000000000000000000000000008152600401610c1990613f1e565b60405180910390fd5b813414610c64576040517f08c379a0000000000000000000000000000000000000000000000000000000008152600401610c5b90613fb0565b60405180910390fd5b6000600c600085815260200190815260200160002060020160146101000a81548160ff021916908315150217905550610c9d6008611dd7565b610ca8813385611ade565b8073ffffffffffffffffffffffffffffffffffffffff166108fc349081150290604051600060405180830381858888f19350505050158015610cee573d6000803e3d6000fd5b50505050565b6000610cff83611131565b8210610d40576040517f08c379a0000000000000000000000000000000000000000000000000000000008152600401610d3790614042565b60405180910390fd5b600e60008473ffffffffffffffffffffffffffffffffffffffff1673ffffffffffffffffffffffffffffffffffffffff168152602001908152602001600020600083815260200190815260200160002054905092915050565b60606000610da56109a3565b9050600080610db46008611e33565b67ffffffffffffffff811115610dcd57610dcc6136c9565b5b604051908082528060200260200182016040528015610e0657816020015b610df36130d7565b815260200190600190039081610deb5790505b50905060005b83811015610f22576000610e1f82610f88565b90506000600c600083815260200190815260200160002090508060020160149054906101000a900460ff1615610f0d578060405180608001604052908160008201548152602001600182015481526020016002820160009054906101000a900473ffffffffffffffffffffffffffffffffffffffff1673ffffffffffffffffffffffffffffffffffffffff1673ffffffffffffffffffffffffffffffffffffffff1681526020016002820160149054906101000a900460ff161515151581525050848681518110610ef357610ef2614062565b5b60200260200101819052508480610f09906140c0565b9550505b50508080610f1a906140c0565b915050610e0c565b5080935050505090565b610f4783838360405180602001604052806000815250611487565b505050565b600060011515600b83604051610f629190614144565b908152602001604051809103902060009054906101000a900460ff161515149050919050565b6000610f926109a3565b8210610fd3576040517f08c379a0000000000000000000000000000000000000000000000000000000008152600401610fca906141cd565b60405180910390fd5b600a8281548110610fe757610fe6614062565b5b90600052602060002001549050919050565b60008061100583611e41565b9050600073ffffffffffffffffffffffffffffffffffffffff168173ffffffffffffffffffffffffffffffffffffffff1603611076576040517f08c379a000000000000000000000000000000000000000000000000000000000815260040161106d90614239565b60405180910390fd5b80915050919050565b6110876130d7565b600c600083815260200190815260200160002060405180608001604052908160008201548152602001600182015481526020016002820160009054906101000a900473ffffffffffffffffffffffffffffffffffffffff1673ffffffffffffffffffffffffffffffffffffffff1673ffffffffffffffffffffffffffffffffffffffff1681526020016002820160149054906101000a900460ff1615151515815250509050919050565b60008073ffffffffffffffffffffffffffffffffffffffff168273ffffffffffffffffffffffffffffffffffffffff16036111a1576040517f08c379a0000000000000000000000000000000000000000000000000000000008152600401611198906142cb565b60405180910390fd5b600360008373ffffffffffffffffffffffffffffffffffffffff1673ffffffffffffffffffffffffffffffffffffffff168152602001908152602001600020549050919050565b606060006111f533611131565b905060008167ffffffffffffffff811115611213576112126136c9565b5b60405190808252806020026020018201604052801561124c57816020015b6112396130d7565b8152602001906001900390816112315790505b50905060005b828110156113435760006112663383610cf4565b90506000600c600083815260200190815260200160002090508060405180608001604052908160008201548152602001600182015481526020016002820160009054906101000a900473ffffffffffffffffffffffffffffffffffffffff1673ffffffffffffffffffffffffffffffffffffffff1673ffffffffffffffffffffffffffffffffffffffff1681526020016002820160149054906101000a900460ff16151515158152505084848151811061132357611322614062565b5b60200260200101819052505050808061133b906140c0565b915050611252565b50809250505090565b611354611e7e565b61135e6000611efc565b565b611368611e7e565b600081116113ab576040517f08c379a00000000000000000000000000000000000000000000000000000000081526004016113a290614337565b60405180910390fd5b8060108190555050565b6000600760009054906101000a900473ffffffffffffffffffffffffffffffffffffffff16905090565b6060600180546113ee90613b35565b80601f016020809104026020016040519081016040528092919081815260200182805461141a90613b35565b80156114675780601f1061143c57610100808354040283529160200191611467565b820191906000526020600020905b81548152906001019060200180831161144a57829003601f168201915b5050505050905090565b61148361147c611972565b8383611fc2565b5050565b611498611492611972565b83611a49565b6114d7576040517f08c379a00000000000000000000000000000000000000000000000000000000081526004016114ce90613e8c565b60405180910390fd5b6114e38484848461212e565b50505050565b60006114f483610f4c565b15611534576040517f08c379a000000000000000000000000000000000000000000000000000000000815260040161152b906143a3565b60405180910390fd5b6010543414611578576040517f08c379a000000000000000000000000000000000000000000000000000000000815260040161156f90613dfa565b60405180910390fd5b6115826009611a33565b61158c6008611a33565b60006115986009611e33565b90506115a4338261218a565b6115ae81856121a8565b6115b88184612253565b6001600b856040516115ca9190614144565b908152602001604051809103902060006101000a81548160ff0219169083151502179055508091505092915050565b611602816123a3565b50565b60105481565b606061161682611927565b600060066000848152602001908152602001600020805461163690613b35565b80601f016020809104026020016040519081016040528092919081815260200182805461166290613b35565b80156116af5780601f10611684576101008083540402835291602001916116af565b820191906000526020600020905b81548152906001019060200180831161169257829003601f168201915b5050505050905060006116c06123f6565b905060008151036116d5578192505050611718565b60008251111561170a5780826040516020016116f29291906143c3565b60405160208183030381529060405292505050611718565b6117138461240d565b925050505b919050565b60006117296008611e33565b905090565b6000600560008473ffffffffffffffffffffffffffffffffffffffff1673ffffffffffffffffffffffffffffffffffffffff16815260200190815260200160002060008373ffffffffffffffffffffffffffffffffffffffff1673ffffffffffffffffffffffffffffffffffffffff16815260200190815260200160002060009054906101000a900460ff16905092915050565b6117ca611e7e565b600073ffffffffffffffffffffffffffffffffffffffff168173ffffffffffffffffffffffffffffffffffffffff1603611839576040517f08c379a000000000000000000000000000000000000000000000000000000000815260040161183090614459565b60405180910390fd5b61184281611efc565b50565b60007f80ac58cd000000000000000000000000000000000000000000000000000000007bffffffffffffffffffffffffffffffffffffffffffffffffffffffff1916827bffffffffffffffffffffffffffffffffffffffffffffffffffffffff1916148061191057507f5b5e139f000000000000000000000000000000000000000000000000000000007bffffffffffffffffffffffffffffffffffffffffffffffffffffffff1916827bffffffffffffffffffffffffffffffffffffffffffffffffffffffff1916145b80611920575061191f82612475565b5b9050919050565b611930816124df565b61196f576040517f08c379a000000000000000000000000000000000000000000000000000000000815260040161196690614239565b60405180910390fd5b50565b600033905090565b816004600083815260200190815260200160002060006101000a81548173ffffffffffffffffffffffffffffffffffffffff021916908373ffffffffffffffffffffffffffffffffffffffff160217905550808273ffffffffffffffffffffffffffffffffffffffff166119ed83610ff9565b73ffffffffffffffffffffffffffffffffffffffff167f8c5be1e5ebec7d5bd14f71427d1e84f3dd0314c0f7b2291e5b200ac8c7c3b92560405160405180910390a45050565b6001816000016000828254019250508190555050565b600080611a5583610ff9565b90508073ffffffffffffffffffffffffffffffffffffffff168473ffffffffffffffffffffffffffffffffffffffff161480611a975750611a96818561172e565b5b80611ad557508373ffffffffffffffffffffffffffffffffffffffff16611abd84610846565b73ffffffffffffffffffffffffffffffffffffffff16145b91505092915050565b8273ffffffffffffffffffffffffffffffffffffffff16611afe82610ff9565b73ffffffffffffffffffffffffffffffffffffffff1614611b54576040517f08c379a0000000000000000000000000000000000000000000000000000000008152600401611b4b906144eb565b60405180910390fd5b600073ffffffffffffffffffffffffffffffffffffffff168273ffffffffffffffffffffffffffffffffffffffff1603611bc3576040517f08c379a0000000000000000000000000000000000000000000000000000000008152600401611bba9061457d565b60405180910390fd5b611bd08383836001612520565b8273ffffffffffffffffffffffffffffffffffffffff16611bf082610ff9565b73ffffffffffffffffffffffffffffffffffffffff1614611c46576040517f08c379a0000000000000000000000000000000000000000000000000000000008152600401611c3d906144eb565b60405180910390fd5b6004600082815260200190815260200160002060006101000a81549073ffffffffffffffffffffffffffffffffffffffff02191690556001600360008573ffffffffffffffffffffffffffffffffffffffff1673ffffffffffffffffffffffffffffffffffffffff168152602001908152602001600020600082825403925050819055506001600360008473ffffffffffffffffffffffffffffffffffffffff1673ffffffffffffffffffffffffffffffffffffffff16815260200190815260200160002060008282540192505081905550816002600083815260200190815260200160002060006101000a81548173ffffffffffffffffffffffffffffffffffffffff021916908373ffffffffffffffffffffffffffffffffffffffff160217905550808273ffffffffffffffffffffffffffffffffffffffff168473ffffffffffffffffffffffffffffffffffffffff167fddf252ad1be2c89b69c2b068fc378daa952ba7f163c4a11628f55a4df523b3ef60405160405180910390a4611dd28383836001612634565b505050565b60008160000154905060008111611e23576040517f08c379a0000000000000000000000000000000000000000000000000000000008152600401611e1a906145e9565b60405180910390fd5b6001810382600001819055505050565b600081600001549050919050565b60006002600083815260200190815260200160002060009054906101000a900473ffffffffffffffffffffffffffffffffffffffff169050919050565b611e86611972565b73ffffffffffffffffffffffffffffffffffffffff16611ea46113b5565b73ffffffffffffffffffffffffffffffffffffffff1614611efa576040517f08c379a0000000000000000000000000000000000000000000000000000000008152600401611ef190614655565b60405180910390fd5b565b6000600760009054906101000a900473ffffffffffffffffffffffffffffffffffffffff16905081600760006101000a81548173ffffffffffffffffffffffffffffffffffffffff021916908373ffffffffffffffffffffffffffffffffffffffff1602179055508173ffffffffffffffffffffffffffffffffffffffff168173ffffffffffffffffffffffffffffffffffffffff167f8be0079c531659141344cd1fd0a4f28419497f9722a3daafe3b4186f6b6457e060405160405180910390a35050565b8173ffffffffffffffffffffffffffffffffffffffff168373ffffffffffffffffffffffffffffffffffffffff1603612030576040517f08c379a0000000000000000000000000000000000000000000000000000000008152600401612027906146c1565b60405180910390fd5b80600560008573ffffffffffffffffffffffffffffffffffffffff1673ffffffffffffffffffffffffffffffffffffffff16815260200190815260200160002060008473ffffffffffffffffffffffffffffffffffffffff1673ffffffffffffffffffffffffffffffffffffffff16815260200190815260200160002060006101000a81548160ff0219169083151502179055508173ffffffffffffffffffffffffffffffffffffffff168373ffffffffffffffffffffffffffffffffffffffff167f17307eab39ab6107e8899845ad3d59bd9653f200f220920489ca2b5937696c318360405161212191906132ae565b60405180910390a3505050565b612139848484611ade565b6121458484848461263a565b612184576040517f08c379a000000000000000000000000000000000000000000000000000000000815260040161217b90614753565b60405180910390fd5b50505050565b6121a48282604051806020016040528060008152506127c1565b5050565b6121b1826124df565b6121f0576040517f08c379a00000000000000000000000000000000000000000000000000000000081526004016121e7906147e5565b60405180910390fd5b80600660008481526020019081526020016000209080519060200190612217929190613117565b507ff8e1a15aba9398e019f0b49df1a4fde98ee17ae345cb5f6b5e2c27f5033e8ce78260405161224791906134be565b60405180910390a15050565b60008111612296576040517f08c379a000000000000000000000000000000000000000000000000000000000815260040161228d90614337565b60405180910390fd5b60405180608001604052808381526020018281526020013373ffffffffffffffffffffffffffffffffffffffff16815260200160011515815250600c6000848152602001908152602001600020600082015181600001556020820151816001015560408201518160020160006101000a81548173ffffffffffffffffffffffffffffffffffffffff021916908373ffffffffffffffffffffffffffffffffffffffff16021790555060608201518160020160146101000a81548160ff0219169083151502179055509050507f470031062672bc0246e132c723a729c4676710ec663a29e86c88678032daddea82823360016040516123979493929190614805565b60405180910390a15050565b6123ac8161281c565b60006006600083815260200190815260200160002080546123cc90613b35565b9050146123f3576006600082815260200190815260200160002060006123f2919061319d565b5b50565b606060405180602001604052806000815250905090565b606061241882611927565b60006124226123f6565b90506000815111612442576040518060200160405280600081525061246d565b8061244c8461296a565b60405160200161245d9291906143c3565b6040516020818303038152906040525b915050919050565b60007f01ffc9a7000000000000000000000000000000000000000000000000000000007bffffffffffffffffffffffffffffffffffffffffffffffffffffffff1916827bffffffffffffffffffffffffffffffffffffffffffffffffffffffff1916149050919050565b60008073ffffffffffffffffffffffffffffffffffffffff1661250183611e41565b73ffffffffffffffffffffffffffffffffffffffff1614159050919050565b61252c84848484612a38565b600073ffffffffffffffffffffffffffffffffffffffff168473ffffffffffffffffffffffffffffffffffffffff160361256e5761256982612a3e565b6125ad565b8273ffffffffffffffffffffffffffffffffffffffff168473ffffffffffffffffffffffffffffffffffffffff16146125ac576125ab8483612a87565b5b5b600073ffffffffffffffffffffffffffffffffffffffff168373ffffffffffffffffffffffffffffffffffffffff16036125ef576125ea82612bf4565b61262e565b8373ffffffffffffffffffffffffffffffffffffffff168373ffffffffffffffffffffffffffffffffffffffff161461262d5761262c8383612cc5565b5b5b50505050565b50505050565b600061265b8473ffffffffffffffffffffffffffffffffffffffff16612d44565b156127b4578373ffffffffffffffffffffffffffffffffffffffff1663150b7a02612684611972565b8786866040518563ffffffff1660e01b81526004016126a6949392919061489f565b6020604051808303816000875af19250505080156126e257506040513d601f19601f820116820180604052508101906126df9190614900565b60015b612764573d8060008114612712576040519150601f19603f3d011682016040523d82523d6000602084013e612717565b606091505b50600081510361275c576040517f08c379a000000000000000000000000000000000000000000000000000000000815260040161275390614753565b60405180910390fd5b805181602001fd5b63150b7a0260e01b7bffffffffffffffffffffffffffffffffffffffffffffffffffffffff1916817bffffffffffffffffffffffffffffffffffffffffffffffffffffffff1916149150506127b9565b600190505b949350505050565b6127cb8383612d67565b6127d8600084848461263a565b612817576040517f08c379a000000000000000000000000000000000000000000000000000000000815260040161280e90614753565b60405180910390fd5b505050565b600061282782610ff9565b9050612837816000846001612520565b61284082610ff9565b90506004600083815260200190815260200160002060006101000a81549073ffffffffffffffffffffffffffffffffffffffff02191690556001600360008373ffffffffffffffffffffffffffffffffffffffff1673ffffffffffffffffffffffffffffffffffffffff168152602001908152602001600020600082825403925050819055506002600083815260200190815260200160002060006101000a81549073ffffffffffffffffffffffffffffffffffffffff021916905581600073ffffffffffffffffffffffffffffffffffffffff168273ffffffffffffffffffffffffffffffffffffffff167fddf252ad1be2c89b69c2b068fc378daa952ba7f163c4a11628f55a4df523b3ef60405160405180910390a4612966816000846001612634565b5050565b60606000600161297984612f84565b01905060008167ffffffffffffffff811115612998576129976136c9565b5b6040519080825280601f01601f1916602001820160405280156129ca5781602001600182028036833780820191505090505b509050600082602001820190505b600115612a2d578080600190039150507f3031323334353637383961626364656600000000000000000000000000000000600a86061a8153600a8581612a2157612a2061492d565b5b049450600085036129d8575b819350505050919050565b50505050565b600a80549050600d600083815260200190815260200160002081905550600a81908060018154018082558091505060019003906000526020600020016000909190919091505550565b60006001612a9484611131565b612a9e919061495c565b90506000600f6000848152602001908152602001600020549050818114612b83576000600e60008673ffffffffffffffffffffffffffffffffffffffff1673ffffffffffffffffffffffffffffffffffffffff168152602001908152602001600020600084815260200190815260200160002054905080600e60008773ffffffffffffffffffffffffffffffffffffffff1673ffffffffffffffffffffffffffffffffffffffff16815260200190815260200160002060008481526020019081526020016000208190555081600f600083815260200190815260200160002081905550505b600f600084815260200190815260200160002060009055600e60008573ffffffffffffffffffffffffffffffffffffffff1673ffffffffffffffffffffffffffffffffffffffff16815260200190815260200160002060008381526020019081526020016000206000905550505050565b60006001600a80549050612c08919061495c565b90506000600d60008481526020019081526020016000205490506000600a8381548110612c3857612c37614062565b5b9060005260206000200154905080600a8381548110612c5a57612c59614062565b5b906000526020600020018190555081600d600083815260200190815260200160002081905550600d600085815260200190815260200160002060009055600a805480612ca957612ca8614990565b5b6001900381819060005260206000200160009055905550505050565b6000612cd083611131565b905081600e60008573ffffffffffffffffffffffffffffffffffffffff1673ffffffffffffffffffffffffffffffffffffffff16815260200190815260200160002060008381526020019081526020016000208190555080600f600084815260200190815260200160002081905550505050565b6000808273ffffffffffffffffffffffffffffffffffffffff163b119050919050565b600073ffffffffffffffffffffffffffffffffffffffff168273ffffffffffffffffffffffffffffffffffffffff1603612dd6576040517f08c379a0000000000000000000000000000000000000000000000000000000008152600401612dcd90614a0b565b60405180910390fd5b612ddf816124df565b15612e1f576040517f08c379a0000000000000000000000000000000000000000000000000000000008152600401612e1690614a77565b60405180910390fd5b612e2d600083836001612520565b612e36816124df565b15612e76576040517f08c379a0000000000000000000000000000000000000000000000000000000008152600401612e6d90614a77565b60405180910390fd5b6001600360008473ffffffffffffffffffffffffffffffffffffffff1673ffffffffffffffffffffffffffffffffffffffff16815260200190815260200160002060008282540192505081905550816002600083815260200190815260200160002060006101000a81548173ffffffffffffffffffffffffffffffffffffffff021916908373ffffffffffffffffffffffffffffffffffffffff160217905550808273ffffffffffffffffffffffffffffffffffffffff16600073ffffffffffffffffffffffffffffffffffffffff167fddf252ad1be2c89b69c2b068fc378daa952ba7f163c4a11628f55a4df523b3ef60405160405180910390a4612f80600083836001612634565b5050565b600080600090507a184f03e93ff9f4daa797ed6e38ed64bf6a1f0100000000000000008310612fe2577a184f03e93ff9f4daa797ed6e38ed64bf6a1f0100000000000000008381612fd857612fd761492d565b5b0492506040810190505b6d04ee2d6d415b85acef8100000000831061301f576d04ee2d6d415b85acef810000000083816130155761301461492d565b5b0492506020810190505b662386f26fc10000831061304e57662386f26fc1000083816130445761304361492d565b5b0492506010810190505b6305f5e1008310613077576305f5e100838161306d5761306c61492d565b5b0492506008810190505b612710831061309c5761271083816130925761309161492d565b5b0492506004810190505b606483106130bf57606483816130b5576130b461492d565b5b0492506002810190505b600a83106130ce576001810190505b80915050919050565b60405180608001604052806000815260200160008152602001600073ffffffffffffffffffffffffffffffffffffffff1681526020016000151581525090565b82805461312390613b35565b90600052602060002090601f016020900481019282613145576000855561318c565b82601f1061315e57805160ff191683800117855561318c565b8280016001018555821561318c579182015b8281111561318b578251825591602001919060010190613170565b5b50905061319991906131dd565b5090565b5080546131a990613b35565b6000825580601f106131bb57506131da565b601f0160209004906000526020600020908101906131d991906131dd565b5b50565b5b808211156131f65760008160009055506001016131de565b5090565b6000604051905090565b600080fd5b600080fd5b60007fffffffff0000000000000000000000000000000000000000000000000000000082169050919050565b6132438161320e565b811461324e57600080fd5b50565b6000813590506132608161323a565b92915050565b60006020828403121561327c5761327b613204565b5b600061328a84828501613251565b91505092915050565b60008115159050919050565b6132a881613293565b82525050565b60006020820190506132c3600083018461329f565b92915050565b600081519050919050565b600082825260208201905092915050565b60005b838110156133035780820151818401526020810190506132e8565b83811115613312576000848401525b50505050565b6000601f19601f8301169050919050565b6000613334826132c9565b61333e81856132d4565b935061334e8185602086016132e5565b61335781613318565b840191505092915050565b6000602082019050818103600083015261337c8184613329565b905092915050565b6000819050919050565b61339781613384565b81146133a257600080fd5b50565b6000813590506133b48161338e565b92915050565b6000602082840312156133d0576133cf613204565b5b60006133de848285016133a5565b91505092915050565b600073ffffffffffffffffffffffffffffffffffffffff82169050919050565b6000613412826133e7565b9050919050565b61342281613407565b82525050565b600060208201905061343d6000830184613419565b92915050565b61344c81613407565b811461345757600080fd5b50565b60008135905061346981613443565b92915050565b6000806040838503121561348657613485613204565b5b60006134948582860161345a565b92505060206134a5858286016133a5565b9150509250929050565b6134b881613384565b82525050565b60006020820190506134d360008301846134af565b92915050565b600080604083850312156134f0576134ef613204565b5b60006134fe858286016133a5565b925050602061350f858286016133a5565b9150509250929050565b60008060006060848603121561353257613531613204565b5b60006135408682870161345a565b93505060206135518682870161345a565b9250506040613562868287016133a5565b9150509250925092565b600081519050919050565b600082825260208201905092915050565b6000819050602082019050919050565b6135a181613384565b82525050565b6135b081613407565b82525050565b6135bf81613293565b82525050565b6080820160008201516135db6000850182613598565b5060208201516135ee6020850182613598565b50604082015161360160408501826135a7565b50606082015161361460608501826135b6565b50505050565b600061362683836135c5565b60808301905092915050565b6000602082019050919050565b600061364a8261356c565b6136548185613577565b935061365f83613588565b8060005b83811015613690578151613677888261361a565b975061368283613632565b925050600181019050613663565b5085935050505092915050565b600060208201905081810360008301526136b7818461363f565b905092915050565b600080fd5b600080fd5b7f4e487b7100000000000000000000000000000000000000000000000000000000600052604160045260246000fd5b61370182613318565b810181811067ffffffffffffffff821117156137205761371f6136c9565b5b80604052505050565b60006137336131fa565b905061373f82826136f8565b919050565b600067ffffffffffffffff82111561375f5761375e6136c9565b5b61376882613318565b9050602081019050919050565b82818337600083830152505050565b600061379761379284613744565b613729565b9050828152602081018484840111156137b3576137b26136c4565b5b6137be848285613775565b509392505050565b600082601f8301126137db576137da6136bf565b5b81356137eb848260208601613784565b91505092915050565b60006020828403121561380a57613809613204565b5b600082013567ffffffffffffffff81111561382857613827613209565b5b613834848285016137c6565b91505092915050565b6080820160008201516138536000850182613598565b5060208201516138666020850182613598565b50604082015161387960408501826135a7565b50606082015161388c60608501826135b6565b50505050565b60006080820190506138a7600083018461383d565b92915050565b6000602082840312156138c3576138c2613204565b5b60006138d18482850161345a565b91505092915050565b6138e381613293565b81146138ee57600080fd5b50565b600081359050613900816138da565b92915050565b6000806040838503121561391d5761391c613204565b5b600061392b8582860161345a565b925050602061393c858286016138f1565b9150509250929050565b600067ffffffffffffffff821115613961576139606136c9565b5b61396a82613318565b9050602081019050919050565b600061398a61398584613946565b613729565b9050828152602081018484840111156139a6576139a56136c4565b5b6139b1848285613775565b509392505050565b600082601f8301126139ce576139cd6136bf565b5b81356139de848260208601613977565b91505092915050565b60008060008060808587031215613a0157613a00613204565b5b6000613a0f8782880161345a565b9450506020613a208782880161345a565b9350506040613a31878288016133a5565b925050606085013567ffffffffffffffff811115613a5257613a51613209565b5b613a5e878288016139b9565b91505092959194509250565b60008060408385031215613a8157613a80613204565b5b600083013567ffffffffffffffff811115613a9f57613a9e613209565b5b613aab858286016137c6565b9250506020613abc858286016133a5565b9150509250929050565b60008060408385031215613add57613adc613204565b5b6000613aeb8582860161345a565b9250506020613afc8582860161345a565b9150509250929050565b7f4e487b7100000000000000000000000000000000000000000000000000000000600052602260045260246000fd5b60006002820490506001821680613b4d57607f821691505b602082108103613b6057613b5f613b06565b5b50919050565b7f4552433732313a20617070726f76616c20746f2063757272656e74206f776e6560008201527f7200000000000000000000000000000000000000000000000000000000000000602082015250565b6000613bc26021836132d4565b9150613bcd82613b66565b604082019050919050565b60006020820190508181036000830152613bf181613bb5565b9050919050565b7f4552433732313a20617070726f76652063616c6c6572206973206e6f7420746f60008201527f6b656e206f776e6572206f7220617070726f76656420666f7220616c6c000000602082015250565b6000613c54603d836132d4565b9150613c5f82613bf8565b604082019050919050565b60006020820190508181036000830152613c8381613c47565b9050919050565b7f596f7520617265206e6f7420746865206f776e6572206f662074686973204e4660008201527f5400000000000000000000000000000000000000000000000000000000000000602082015250565b6000613ce66021836132d4565b9150613cf182613c8a565b604082019050919050565b60006020820190508181036000830152613d1581613cd9565b9050919050565b7f54686973204e465420697320616c7265616479206c6973746564000000000000600082015250565b6000613d52601a836132d4565b9150613d5d82613d1c565b602082019050919050565b60006020820190508181036000830152613d8181613d45565b9050919050565b7f5072696365206d75737420626520657175616c20746f206c697374696e67207060008201527f7269636500000000000000000000000000000000000000000000000000000000602082015250565b6000613de46024836132d4565b9150613def82613d88565b604082019050919050565b60006020820190508181036000830152613e1381613dd7565b9050919050565b7f4552433732313a2063616c6c6572206973206e6f7420746f6b656e206f776e6560008201527f72206f7220617070726f76656400000000000000000000000000000000000000602082015250565b6000613e76602d836132d4565b9150613e8182613e1a565b604082019050919050565b60006020820190508181036000830152613ea581613e69565b9050919050565b7f596f7520616c726561647920746865206f776e6572206f662074686973204e4660008201527f5400000000000000000000000000000000000000000000000000000000000000602082015250565b6000613f086021836132d4565b9150613f1382613eac565b604082019050919050565b60006020820190508181036000830152613f3781613efb565b9050919050565b7f5072696365206d75737420626520657175616c20746f20746865204e4654207060008201527f7269636500000000000000000000000000000000000000000000000000000000602082015250565b6000613f9a6024836132d4565b9150613fa582613f3e565b604082019050919050565b60006020820190508181036000830152613fc981613f8d565b9050919050565b7f496e646578206d757374206265206c657373207468616e206f776e657220626160008201527f6c616e6365000000000000000000000000000000000000000000000000000000602082015250565b600061402c6025836132d4565b915061403782613fd0565b604082019050919050565b6000602082019050818103600083015261405b8161401f565b9050919050565b7f4e487b7100000000000000000000000000000000000000000000000000000000600052603260045260246000fd5b7f4e487b7100000000000000000000000000000000000000000000000000000000600052601160045260246000fd5b60006140cb82613384565b91507fffffffffffffffffffffffffffffffffffffffffffffffffffffffffffffffff82036140fd576140fc614091565b5b600182019050919050565b600081905092915050565b600061411e826132c9565b6141288185614108565b93506141388185602086016132e5565b80840191505092915050565b60006141508284614113565b915081905092915050565b7f496e646578206d757374206265206c657373207468616e20746f74616c20737560008201527f70706c7900000000000000000000000000000000000000000000000000000000602082015250565b60006141b76024836132d4565b91506141c28261415b565b604082019050919050565b600060208201905081810360008301526141e6816141aa565b9050919050565b7f4552433732313a20696e76616c696420746f6b656e2049440000000000000000600082015250565b60006142236018836132d4565b915061422e826141ed565b602082019050919050565b6000602082019050818103600083015261425281614216565b9050919050565b7f4552433732313a2061646472657373207a65726f206973206e6f74206120766160008201527f6c6964206f776e65720000000000000000000000000000000000000000000000602082015250565b60006142b56029836132d4565b91506142c082614259565b604082019050919050565b600060208201905081810360008301526142e4816142a8565b9050919050565b7f5072696365206d7573742062652067726561746572207468616e203000000000600082015250565b6000614321601c836132d4565b915061432c826142eb565b602082019050919050565b6000602082019050818103600083015261435081614314565b9050919050565b7f5468697320746f6b656e2055524920616c726561647920657869737473000000600082015250565b600061438d601d836132d4565b915061439882614357565b602082019050919050565b600060208201905081810360008301526143bc81614380565b9050919050565b60006143cf8285614113565b91506143db8284614113565b91508190509392505050565b7f4f776e61626c653a206e6577206f776e657220697320746865207a65726f206160008201527f6464726573730000000000000000000000000000000000000000000000000000602082015250565b60006144436026836132d4565b915061444e826143e7565b604082019050919050565b6000602082019050818103600083015261447281614436565b9050919050565b7f4552433732313a207472616e736665722066726f6d20696e636f72726563742060008201527f6f776e6572000000000000000000000000000000000000000000000000000000602082015250565b60006144d56025836132d4565b91506144e082614479565b604082019050919050565b60006020820190508181036000830152614504816144c8565b9050919050565b7f4552433732313a207472616e7366657220746f20746865207a65726f2061646460008201527f7265737300000000000000000000000000000000000000000000000000000000602082015250565b60006145676024836132d4565b91506145728261450b565b604082019050919050565b600060208201905081810360008301526145968161455a565b9050919050565b7f436f756e7465723a2064656372656d656e74206f766572666c6f770000000000600082015250565b60006145d3601b836132d4565b91506145de8261459d565b602082019050919050565b60006020820190508181036000830152614602816145c6565b9050919050565b7f4f776e61626c653a2063616c6c6572206973206e6f7420746865206f776e6572600082015250565b600061463f6020836132d4565b915061464a82614609565b602082019050919050565b6000602082019050818103600083015261466e81614632565b9050919050565b7f4552433732313a20617070726f766520746f2063616c6c657200000000000000600082015250565b60006146ab6019836132d4565b91506146b682614675565b602082019050919050565b600060208201905081810360008301526146da8161469e565b9050919050565b7f4552433732313a207472616e7366657220746f206e6f6e20455243373231526560008201527f63656976657220696d706c656d656e7465720000000000000000000000000000602082015250565b600061473d6032836132d4565b9150614748826146e1565b604082019050919050565b6000602082019050818103600083015261476c81614730565b9050919050565b7f45524337323155524953746f726167653a2055524920736574206f66206e6f6e60008201527f6578697374656e7420746f6b656e000000000000000000000000000000000000602082015250565b60006147cf602e836132d4565b91506147da82614773565b604082019050919050565b600060208201905081810360008301526147fe816147c2565b9050919050565b600060808201905061481a60008301876134af565b61482760208301866134af565b6148346040830185613419565b614841606083018461329f565b95945050505050565b600081519050919050565b600082825260208201905092915050565b60006148718261484a565b61487b8185614855565b935061488b8185602086016132e5565b61489481613318565b840191505092915050565b60006080820190506148b46000830187613419565b6148c16020830186613419565b6148ce60408301856134af565b81810360608301526148e08184614866565b905095945050505050565b6000815190506148fa8161323a565b92915050565b60006020828403121561491657614915613204565b5b6000614924848285016148eb565b91505092915050565b7f4e487b7100000000000000000000000000000000000000000000000000000000600052601260045260246000fd5b600061496782613384565b915061497283613384565b92508282101561498557614984614091565b5b828203905092915050565b7f4e487b7100000000000000000000000000000000000000000000000000000000600052603160045260246000fd5b7f4552433732313a206d696e7420746f20746865207a65726f2061646472657373600082015250565b60006149f56020836132d4565b9150614a00826149bf565b602082019050919050565b60006020820190508181036000830152614a24816149e8565b9050919050565b7f4552433732313a20746f6b656e20616c7265616479206d696e74656400000000600082015250565b6000614a61601c836132d4565b9150614a6c82614a2b565b602082019050919050565b60006020820190508181036000830152614a9081614a54565b905091905056fea26469706673582212204998b68a217e8757521b15146e1055d0813d2f30b06fa31fcd6ce6853c467a0064736f6c634300080d0033",
  "immutableReferences": {},
  "source": "// SPDX-License-Identifier: MIT\r\n// Tells the Solidity compiler to compile only from v0.8.13 to v0.9.0\r\npragma solidity ^0.8.13;\r\nimport \"@openzeppelin/contracts/token/ERC721/extensions/ERC721URIStorage.sol\";\r\nimport \"@openzeppelin/contracts/utils/Counters.sol\";\r\nimport \"@openzeppelin/contracts/access/Ownable.sol\";\r\n\r\ncontract NftMarket is ERC721URIStorage, Ownable {\r\n    using Counters for Counters.Counter;\r\n    struct NftItem {\r\n        uint tokenId;\r\n        uint price;\r\n        address creator;\r\n        bool isListed;\r\n    }\r\n    Counters.Counter private _listedItems;\r\n    Counters.Counter private _tokenIds;\r\n    // tokenIds\r\n    uint256[] private _allNfts;\r\n    // tokenURI\r\n    mapping(string => bool) private _usedTokenURIs;\r\n    // NFT,tokenIdNFT\r\n    mapping(uint => NftItem) private _nftItems;\r\n    // tokenIdkey,_allNfts.lengthvalue\r\n    mapping(uint => uint) private _nftItemIndex;\r\n    mapping(address => mapping(uint => uint)) private _ownedTokens;\r\n    mapping(uint => uint) private _idToOwnerIndex;\r\n    // \r\n    uint public listingPrice = 0.025 ether;\r\n    \r\n    event NftItemCreated(uint tokenId, uint price, address creator, bool isListed);\r\n    constructor() ERC721(\"NftMarket\", \"NFTM\") {}\r\n\r\n    // \r\n    function setListingPrice(uint price) external onlyOwner {\r\n        require(price > 0, \"Price must be greater than 0\");\r\n        listingPrice = price;\r\n    }\r\n    // NFT\r\n    function burnTokenId(uint tokenId) public {\r\n        _burn(tokenId);\r\n    }\r\n    // NFT\r\n    function mintToken(string memory tokenURI, uint price) public payable returns (uint) {\r\n        require(!tokenURIExists(tokenURI), \"This token URI already exists\");\r\n        // \r\n        require(msg.value == listingPrice, \"Price must be equal to listing price\");\r\n        _tokenIds.increment();\r\n        _listedItems.increment();\r\n\r\n        uint newTokenId = _tokenIds.current();\r\n        _safeMint(msg.sender, newTokenId);\r\n        _setTokenURI(newTokenId, tokenURI);\r\n        _createNftItem(newTokenId, price);\r\n        _usedTokenURIs[tokenURI] = true;\r\n        return newTokenId;\r\n    }\r\n    // nft\r\n    function _createNftItem(uint tokenId, uint price) private {\r\n        require(price > 0, \"Price must be greater than 0\");\r\n        _nftItems[tokenId] = NftItem(tokenId, price, msg.sender, true);\r\n        emit NftItemCreated(tokenId, price, msg.sender, true);\r\n    }\r\n    // NFT\r\n    function getOwnedNfts() public view returns (NftItem[] memory) {\r\n        uint ownedNftsCount = balanceOf(msg.sender);\r\n        NftItem[] memory items = new NftItem[](ownedNftsCount);\r\n\r\n        for (uint i = 0; i < ownedNftsCount; i++) {\r\n            uint tokenId = tokenOfOwnerByIndex(msg.sender, i);\r\n            NftItem storage item = _nftItems[tokenId];\r\n            items[i] = item;\r\n        }\r\n\r\n        return items;\r\n    }\r\n    // nft\r\n    function totalSupply() public view returns (uint) {\r\n        return _allNfts.length;\r\n    }\r\n    // indextoken\r\n    function tokenByIndex(uint index) public view returns (uint) {\r\n        require(index < totalSupply(), \"Index must be less than total supply\");\r\n        return _allNfts[index];\r\n    }\r\n    // indextoken\r\n    function tokenOfOwnerByIndex(address owner, uint index) public view returns (uint) {\r\n        require(index < balanceOf(owner), \"Index must be less than owner balance\");\r\n        return _ownedTokens[owner][index];\r\n    }\r\n    // NFT\r\n    function getAllNftsOnSale() public view returns (NftItem[] memory) {\r\n        uint allItemsCounts = totalSupply();\r\n        uint currentIndex = 0;\r\n        NftItem[] memory items = new NftItem[](_listedItems.current());\r\n\r\n        for (uint i = 0; i < allItemsCounts; i++) {\r\n            uint tokenId = tokenByIndex(i);\r\n            NftItem storage item = _nftItems[tokenId];\r\n\r\n            if (item.isListed) {\r\n                items[currentIndex] = item;\r\n                currentIndex++;\r\n            }\r\n        }\r\n\r\n        return items;\r\n    }\r\n    \r\n    // NFT\r\n    function buyNft(uint tokenId) public payable {\r\n        // NFT\r\n        uint price = _nftItems[tokenId].price;\r\n        // NFT\r\n        address owner = ERC721.ownerOf(tokenId);\r\n        require(msg.sender != owner, \"You already the owner of this NFT\");\r\n        require(msg.value == price, \"Price must be equal to the NFT price\");\r\n        _nftItems[tokenId].isListed = false;\r\n        // nft\r\n        _listedItems.decrement();\r\n        // NFT\r\n        _transfer(owner, msg.sender, tokenId);\r\n        payable(owner).transfer(msg.value);\r\n    }\r\n\r\n    // Nft\r\n    function placeNftOnSale(uint tokenId, uint price) public payable {\r\n        require(msg.sender == ERC721.ownerOf(tokenId), \"You are not the owner of this NFT\");\r\n        require(_nftItems[tokenId].isListed == false, \"This NFT is already listed\");\r\n        require(msg.value == listingPrice, \"Price must be equal to listing price\");\r\n        _nftItems[tokenId].isListed = true;\r\n        _nftItems[tokenId].price = price;\r\n        _listedItems.increment();\r\n    }\r\n\r\n    // NFT\r\n    function getNftItem(uint tokenId) public view returns (NftItem memory) {\r\n        return _nftItems[tokenId];\r\n    }\r\n    // nft\r\n    function listedItemsCount() public view returns (uint) {\r\n        return _listedItems.current();\r\n    }\r\n    // tokenURI\r\n    function tokenURIExists(string memory tokenURI) public view returns (bool) {\r\n        return _usedTokenURIs[tokenURI]==true;\r\n    }\r\n\r\n    function _beforeTokenTransfer(address from, address to, uint tokenId,uint256 batchSize) internal virtual override{\r\n        super._beforeTokenTransfer(from, to, tokenId, batchSize);\r\n        if (from == address(0)) {\r\n            _addTokenToAllTokensEnumeration(tokenId);\r\n        }else if (from != to) {\r\n            _removeTokenFromOwnerEnumeration(from, tokenId);\r\n        }\r\n        if(to == address(0)){\r\n            _removeTokenFromAllTokensEnumeration(tokenId);\r\n        } else if (to != from) {\r\n            _addTokenToOwnerEnumeration(to, tokenId);\r\n        }\r\n    }\r\n\r\n    function _addTokenToAllTokensEnumeration(uint tokenId) private {\r\n        _nftItemIndex[tokenId] = _allNfts.length;\r\n        _allNfts.push(tokenId);\r\n    }\r\n    // tokenId\r\n    function _addTokenToOwnerEnumeration(address to, uint tokenId) private {\r\n        // toNFT\r\n        uint length = balanceOf(to);\r\n        // tokenIdtoNFT\r\n        _ownedTokens[to][length] = tokenId;\r\n        // tokenIdtoNFTindex\r\n        _idToOwnerIndex[tokenId] = length;\r\n    }\r\n    // tokenId\r\n    function _removeTokenFromOwnerEnumeration(address from, uint tokenId) private {\r\n        // fromNFT\r\n        uint lastTokenIndex = balanceOf(from) - 1;\r\n        // tokenIdfromNFTindex\r\n        uint tokenIndex = _idToOwnerIndex[tokenId];\r\n        /**\r\n         * toukeIdfromNFTNFT\r\n         * fromNFTNFTtokenId\r\n         */\r\n        if(tokenIndex != lastTokenIndex){\r\n            // fromNFTNFTtokenId\r\n            uint lastTokenId = _ownedTokens[from][lastTokenIndex];\r\n            // fromNFTNFTtokenId\r\n            _ownedTokens[from][tokenIndex] = lastTokenId;\r\n            // TokenIdindex\r\n            _idToOwnerIndex[lastTokenId] = tokenIndex;\r\n        }\r\n        // tokenIdfromNFTindex\r\n        delete _idToOwnerIndex[tokenId];\r\n        // fromNFTNFT\r\n        delete _ownedTokens[from][lastTokenIndex];\r\n    }\r\n    // NFT\r\n    function _removeTokenFromAllTokensEnumeration(uint tokenId) private {\r\n        uint lastTokenIndex = _allNfts.length - 1;\r\n        uint tokenIndex = _nftItemIndex[tokenId];\r\n        uint lastTokenId = _allNfts[lastTokenIndex];\r\n\r\n        _allNfts[tokenIndex] = lastTokenId;\r\n        _nftItemIndex[lastTokenId] = tokenIndex;\r\n\r\n        delete _nftItemIndex[tokenId];\r\n        _allNfts.pop();\r\n    }\r\n}",
  "sourcePath": "C:\\Users\\bkyon\\Documents\\Dapp\\boundless-dapp\\boundless-be\\contracts\\NftMarket.sol",
  "compiler": {
    "name": "solc",
    "version": "0.8.13+commit.abaa5c0e.Emscripten.clang"
  },
  "schemaVersion": "3.4.14",
  "updatedAt": "2023-08-15T02:35:52.552Z",
  "networkType": "ethereum",
  "devdoc": {
    "kind": "dev",
    "methods": {
      "approve(address,uint256)": {
        "details": "See {IERC721-approve}."
      },
      "balanceOf(address)": {
        "details": "See {IERC721-balanceOf}."
      },
      "getApproved(uint256)": {
        "details": "See {IERC721-getApproved}."
      },
      "isApprovedForAll(address,address)": {
        "details": "See {IERC721-isApprovedForAll}."
      },
      "name()": {
        "details": "See {IERC721Metadata-name}."
      },
      "owner()": {
        "details": "Returns the address of the current owner."
      },
      "ownerOf(uint256)": {
        "details": "See {IERC721-ownerOf}."
      },
      "renounceOwnership()": {
        "details": "Leaves the contract without owner. It will not be possible to call `onlyOwner` functions. Can only be called by the current owner. NOTE: Renouncing ownership will leave the contract without an owner, thereby disabling any functionality that is only available to the owner."
      },
      "safeTransferFrom(address,address,uint256)": {
        "details": "See {IERC721-safeTransferFrom}."
      },
      "safeTransferFrom(address,address,uint256,bytes)": {
        "details": "See {IERC721-safeTransferFrom}."
      },
      "setApprovalForAll(address,bool)": {
        "details": "See {IERC721-setApprovalForAll}."
      },
      "supportsInterface(bytes4)": {
        "details": "See {IERC165-supportsInterface}"
      },
      "symbol()": {
        "details": "See {IERC721Metadata-symbol}."
      },
      "tokenURI(uint256)": {
        "details": "See {IERC721Metadata-tokenURI}."
      },
      "transferFrom(address,address,uint256)": {
        "details": "See {IERC721-transferFrom}."
      },
      "transferOwnership(address)": {
        "details": "Transfers ownership of the contract to a new account (`newOwner`). Can only be called by the current owner."
      }
    },
    "version": 1
  },
  "userdoc": {
    "kind": "user",
    "methods": {},
    "version": 1
  }
}